:020000040800F2
:1000000000100020B90300083D310208F903000880
:100010001D040008F80300080B040008B3030008DF
:10002000B3030008B3030008B3030008D59F00081A
:10003000B3030008B3030008B3030008D9AD0008F8
:10004000B3030008B3030008D5AC000845AD0008B1
:10005000B3030008B303000811A5030819A503089A
:1000600021A5030829A5030831A50308BDA200089E
:10007000EDA2000821A3000855A3000889A30008E9
:10008000B9A30008EDA3000851A00008DDA10008F5
:10009000F9A1000815A2000831A2000839A503083B
:1000A000B3030008DDAF0008B3030008F9AF000890
:1000B000B5AE0008FDAF000819B000087DA4030824
:1000C000B3030008EDA500081DA70008B30300084E
:1000D000B3030008B3030008B3030008B303000828
:1000E0005DA5030885AD0008B3030008B30300084D
:1000F00051B00008B30300086DB0000821A4000847
:10010000B3030008B303000835B00008B3030008C8
:10011000B3030008B30300085DAE0008B303000892
:1001200055A4000885A40008B9A40008EDA400089F
:1001300021A50008B3030008B30300084DA200087E
:1001400069A2000885A20008A1A200082DA8000845
:1001500051A5000885A50008B9A5000871B00008E0
:10016000B3030008B3030008B3030008B303000897
:10017000B3030008B3030008B3030008B303000887
:10018000B3030008B3030008B3030008B303000877
:10019000B3030008B3030008B3030008B303000867
:1001A000B3030008B3030008B3030008B303000857
:1001B000B3030008B3030008B3030008B303000847
:1001C000B3030008B3030008B3030008B303000837
:1001D000B3030008B3030008B3030008B303000827
:0801E000F12F000859CC0608BC
:1001F00001F0FF01102A2BDB10F0070F08D010F8D8
:10020000013B013A8B422DD010F0070F42B3F6D1DB
:10021000F0B441EA012141EA014122F007047FF0F4
:1002200000070023F0E80256083C85EA010586EA4B
:10023000010685FA47F5A3FA87F586FA47F6A5FA87
:1002400087F68EB9EED1F0BC01F0FF0102F0070293
:1002500032B110F8013B013A83EA010313B1F8D13E
:100260000020704701387047002D06BF354603381F
:10027000073815F0010F07D1013015F4807F02BF58
:10028000013015F4C03F0130F0BC0138704700BFA9
:1002900072B6394880F30888384880F309883848AE
:1002A0004EF60851CEF20001086040F20000CCF298
:1002B00000004EF63471CEF200010860BFF34F8F9C
:1002C000BFF36F8F40F20000C0F2F0004EF688518D
:1002D000CEF200010860BFF34F8FBFF36F8F4FF076
:1002E0000000E1EE100A4EF63C71CEF2000108600B
:1002F000062080F31488BFF36F8F06F07BF921F09E
:100300004BFB4FF055301F491B4A91423CBF41F80F
:10031000040BFAE71C49194A91423CBF41F8040B0F
:10032000FAE71A491A4A1B4B9A423EBF51F8040B8E
:1003300042F8040BF8E700201749184A91423CBFE5
:1003400041F8040BFAE706F059F93FF011F9144CA3
:10035000144DAC4203DA54F8041B8847F9E763F004
:10036000E3FE114C114DAC4203DA54F8041B8847EC
:10037000F9E706F041B90000001000200016002047
:100380000000000800000020001000208C18090860
:1003900000160020B0190020B019002000A3012091
:1003A000E0010008E4010008E4010008E801000899
:1003B0006EE700F000F8FEE70A480B4902680060AB
:1003C0008A4201D0FFF764FF08484FF48041016082
:1003D00007484FF0010101600648D0F800D040689E
:1003E00000470000F0FF0120EFBEADDE44380240C0
:1003F000003801400000FF1F1EF0040F0CBFEFF398
:100400000880EFF3098022F09DBE1EF0040F0CBFA0
:10041000EFF30880EFF3098022F0DCBE1EF0040F3A
:100420000CBFEFF30880EFF3098022F01FBF00BF7D
:10043000EC46A0E8F05F80EC108B4FF000007047B6
:10044000B0E8F05FE54690EC108B080008BF012093
:10045000704700BF00F1340191E838009C46A64681
:100460004CF8045D90E8FF0FE54600BD90EC210BD1
:10047000704700BF80EC210B704700BF90EC200B51
:10048000704700BF80EC200B704700BFD0EC200B02
:10049000704700BFC0EC200B704700BFF0EC0201BA
:1004A000F0EC0211F0EC0221F0EC0231F0EC024130
:1004B000F0EC0251F0EC0261F0EC0271F0EC028120
:1004C000F0EC0291F0EC02A1F0EC02B1F0EC02C110
:1004D000F0EC02D1F0EC02E1F0EC02F1704700BF69
:1004E000E0EC0201E0EC0211E0EC0221E0EC023170
:1004F000E0EC0241E0EC0251E0EC0261E0EC027160
:10050000E0EC0281E0EC0291E0EC02A1E0EC02B14F
:10051000E0EC02C1E0EC02D1E0EC02E1E0EC02F13F
:10052000704700BFB0FC0181B0FC0191B0FC01A19B
:10053000B0FC01B1704700BFA0FC0181A0FC01919B
:10054000A0FC01A1A0FC01B1704700BFEC4600B5C2
:100550002DE900502DE9FF1F4FF000032DE90C009D
:1005600001A970F035FEDDF840E012B0704700BF21
:10057000EC4600B52DE900502DE9FF1F4FF00003B8
:100580002DE90C0001A970F05FFEDDF840E012B02B
:10059000704700BFEC4600B52DE900502DE9FF1F64
:1005A0004FF000032DE90C0001A970F06DFEDDF89D
:1005B00040E012B0704700BFEC4600B52DE9005096
:1005C0002DE9FF1F4FF000032DE90C0001AB70F087
:1005D00033FEDDF840E012B0704700BFEC4600B5D6
:1005E0002DE900502DE9FF1F4FF000032DE90C000D
:1005F00001AA70F09DFEDDF840E012B0704700BF28
:1006000081F0004102E000BF83F0004330B54FEAC3
:1006100041044FEA430594EA050F08BF90EA020F30
:100620001FBF54EA000C55EA020C7FEA645C7FEAC3
:10063000655C00F0E2804FEA5454D4EB5555B8BFE6
:100640006D420CDD2C4480EA020281EA030382EA57
:10065000000083EA010180EA020281EA0303362DE9
:1006600088BF30BD11F0004F4FEA01314FF4801CBC
:100670004CEA113102D0404261EB410113F0004FCE
:100680004FEA03334CEA133302D0524263EB430385
:1006900094EA050F00F0A780A4F10104D5F1200E23
:1006A0000DDB02FA0EFC22FA05F2801841F100017E
:1006B00003FA0EF2801843FA05F359410EE0A5F152
:1006C00020050EF1200E012A03FA0EFC28BF4CF083
:1006D000020C43FA05F3C01851EBE37101F0004539
:1006E00007D54FF0000EDCF1000C7EEB00006EEB46
:1006F0000101B1F5801F1BD3B1F5001F0CD34908D0
:100700005FEA30004FEA3C0C04F101044FEA445226
:1007100012F5800F80F09A80BCF1004F08BF5FEAAD
:10072000500C50F1000041EB045141EA050130BD8D
:100730005FEA4C0C404141EB0101013C28BFB1F59F
:10074000801FE9D291F0000F04BF01460020B1FAEA
:1007500081F308BF2033A3F10B03B3F120020CDABD
:100760000C3208DD02F1140CC2F10C0201FA0CF09B
:1007700021FA02F10CE002F11402D8BFC2F1200C00
:1007800001FA02F120FA0CFCDCBF41EA0C019040B6
:10079000E41AA2BF01EB0451294330BD6FEA0404FF
:1007A0001F3C1CDA0C340EDC04F11404C4F12002EA
:1007B00020FA04F001FA02F340EA030021FA04F3FC
:1007C00045EA030130BDC4F10C04C4F1200220FA53
:1007D00002F001FA04F340EA0300294630BD21FA91
:1007E00004F0294630BD94F0000F83F4801306BF57
:1007F00081F480110134013D4EE77FEA645C18BF4B
:100800007FEA655C29D094EA050F08BF90EA020FE1
:1008100005D054EA000C04BF1946104630BD91EAD9
:10082000030F1EBF0021002030BD5FEA545C05D1DC
:100830004000494128BF41F0004130BD14F580041B
:100840003CBF01F5801130BD01F0004545F0FE418F
:1008500041F470014FF0000030BD7FEA645C1ABFC4
:10086000194610467FEA655C1CBF0B46024650EAFB
:10087000013406BF52EA033591EA030F41F4002127
:1008800030BD00BF90F0000F04BF0021704730B5AD
:100890004FF4806404F132044FF000054FF0000182
:1008A00050E700BF90F0000F04BF0021704730B543
:1008B0004FF4806404F1320410F0004548BF404218
:1008C0004FF000013EE700BF42004FEAE2014FEA6D
:1008D00031014FEA02701FBF12F07F4393F07F4F48
:1008E00081F06051704732F07F4208BF704793F04B
:1008F0007F4F04BF41F40021704730B54FF460745E
:1009000001F0004521F000411CE700BF50EA010260
:1009100008BF704730B54FF000050AE050EA010209
:1009200008BF704730B511F0004502D5404261EB79
:1009300041014FF4806404F132045FEA915C3FF4BA
:10094000D8AE4FF003025FEADC0C18BF03325FEA57
:10095000DC0C18BF033202EBDC02C2F1200300FA08
:1009600003FC20FA02F001FA03FE40EA0E0021FA2D
:1009700002F11444BDE600BF70B54FF0FF0C4CF41B
:10098000E06C1CEA11541DBF1CEA135594EA0C0FCD
:1009900095EA0C0F00F0DEF82C4481EA030621EA08
:1009A0004C5123EA4C5350EA013518BF52EA033543
:1009B00041F4801143F4801338D0A0FB02CE4FF0F5
:1009C0000005E1FB02E506F00042E0FB03E54FF025
:1009D0000006E1FB03569CF0000F18BF4EF0010E1D
:1009E000A4F1FF04B6F5007F64F5407404D25FEA19
:1009F0004E0E6D4146EB060642EAC62141EA5551CC
:100A00004FEAC52040EA5E504FEACE2EB4F1FD0C0D
:100A100088BFBCF5E06F1ED8BEF1004F08BF5FEA8B
:100A2000500E50F1000041EB045170BD06F000463D
:100A300046EA010140EA020081EA0301B4EB5C04EA
:100A4000C2BFD4EB0C0541EA045170BD41F48011E2
:100A50004FF0000E013C00F3AB8014F1360FDEBF07
:100A6000002001F0004170BDC4F10004203C35DAE3
:100A70000C341BDC04F11404C4F1200500FA05F366
:100A800020FA04F001FA05F240EA020001F0004207
:100A900021F0004110EBD37021FA04F642EB06017D
:100AA0005EEA430E08BF20EAD37070BDC4F10C04A7
:100AB000C4F1200500FA04F320FA05F001FA04F26B
:100AC00040EA020001F0004110EBD37041F1000157
:100AD0005EEA430E08BF20EAD37070BDC4F1200562
:100AE00000FA05F24EEA020E20FA04F301FA05F2CA
:100AF00043EA020321FA04F001F0004121FA04F272
:100B000020EA020000EBD3705EEA430E08BF20EA41
:100B1000D37070BD94F0000F0FD101F0004640007B
:100B200041EB010111F4801F08BF013CF7D041EAFD
:100B3000060195F0000F18BF704703F00046520001
:100B400043EB030313F4801F08BF013DF7D043EAD2
:100B50000603704794EA0C0F0CEA135518BF95EA88
:100B60000C0F0CD050EA410618BF52EA4306D1D10F
:100B700081EA030101F000414FF0000070BD50EA2E
:100B8000410606BF1046194652EA430619D094EAB8
:100B90000C0F02D150EA013613D195EA0C0F05D1A2
:100BA00052EA03361CBF104619460AD181EA0301F6
:100BB00001F0004141F0FE4141F470014FF00000AE
:100BC00070BD41F0FE4141F4780170BD70B54FF049
:100BD000FF0C4CF4E06C1CEA11541DBF1CEA1355C9
:100BE00094EA0C0F95EA0C0F00F0A7F8A4EB0504AB
:100BF00081EA030E52EA03354FEA013100F08880A2
:100C00004FEA03334FF0805545EA131343EA12636A
:100C10004FEA022245EA111545EA10654FEA00261F
:100C20000EF000419D4208BF964244F1FD0404F5D8
:100C3000407402D25B084FEA3202B61A65EB030534
:100C40005B084FEA32024FF480104FF4002CB6EBF1
:100C5000020E75EB030E22BFB61A754640EA0C0071
:100C60005B084FEA3202B6EB020E75EB030E22BFB1
:100C7000B61A754640EA5C005B084FEA3202B6EBF2
:100C8000020E75EB030E22BFB61A754640EA9C00B1
:100C90005B084FEA3202B6EB020E75EB030E22BF81
:100CA000B61A754640EADC0055EA060E18D04FEA3F
:100CB000051545EA16754FEA06164FEAC30343EADF
:100CC00052734FEAC2025FEA1C1CC0D111F4801FAC
:100CD0000BD141EA00014FF000004FF0004CB6E7A5
:100CE00011F4801F04BF01430020B4F1FD0C88BF44
:100CF000BCF5E06F3FF6AFAEB5EB030C04BFB6EB4F
:100D0000020C5FEA500C50F1000041EB045170BD41
:100D10000EF0004E4EEA113114EB5C04C2BFD4EB6E
:100D20000C0541EA045170BD41F480114FF0000EF2
:100D3000013C90E645EA060E8DE60CEA135594EA6E
:100D40000C0F08BF95EA0C0F3FF43BAF94EA0C0F71
:100D50000AD150EA01347FF434AF95EA0C0F7FF4E6
:100D600025AF104619462CE795EA0C0F06D152EA3A
:100D700003353FF4FDAE1046194622E750EA41061E
:100D800018BF52EA43067FF4C5AE50EA41047FF42F
:100D90000DAF52EA43057FF4EBAE12E74FF0FF3C94
:100DA00006E000BF4FF0010C02E000BF4FF0010C65
:100DB0004DF804CD4FEA410C7FEA6C5C4FEA430CDE
:100DC00018BF7FEA6C5C1BD001B050EA410C0CBF2D
:100DD00052EA430C91EA030F02BF90EA020F00208F
:100DE000704710F1000F91EA030F58BF994208BFF6
:100DF00090422CBFD8176FEAE37040F001007047B3
:100E00004FEA410C7FEA6C5C02D150EA013C07D109
:100E10004FEA430C7FEA6C5CD6D152EA033CD3D054
:100E20005DF8040B704700BF8446104662468C464E
:100E30001946634600E000BF01B5FFF7B7FF002881
:100E400048BF10F1000F01BD4DF808EDFFF7F4FFAA
:100E50000CBF012000205DF808FB00BF4DF808ED35
:100E6000FFF7EAFF34BF012000205DF808FB00BF58
:100E70004DF808EDFFF7E0FF94BF012000205DF87A
:100E800008FB00BF4DF808EDFFF7CEFF94BF01202F
:100E900000205DF808FB00BF4DF808EDFFF7C4FF28
:100EA00034BF012000205DF808FB00BF4FEA410C71
:100EB0007FEA6C5C02D150EA013C0AD14FEA430C54
:100EC0007FEA6C5C02D152EA033C02D14FF0000091
:100ED00070474FF0010070474FEA410212F50012CF
:100EE00015D211D56FF47873B3EB625212D94FEA71
:100EF000C12343F0004343EA505311F0004F23FA5B
:100F000002F018BF404270474FF00000704750EAAF
:100F1000013005D111F0004008BF6FF0004070476C
:100F20004FF00000704700BF4FEA4102B2F1E043CA
:100F300024BFB3F5001CDCF1FE5C0DD901F0004CC0
:100F40004FEAC0024CEA5070B2F1004F40EB830010
:100F500008BF20F00100704711F0804F21D113F13C
:100F60003872BCBF01F00040704741F480114FEA75
:100F70005252C2F11802C2F1200C10FA0CF320FAFE
:100F800002F018BF40F001004FEAC1234FEAD3231B
:100F900003FA0CFC40EA0C0023FA02F34FEA430385
:100FA000CCE77FEA625307D150EA01331EBF4FF00E
:100FB000FE4040F44000704701F0004040F0FE4029
:100FC00040F40000704700BF80F0004002E000BF26
:100FD00081F0004142001FBF5FEA410392EA030F24
:100FE0007FEA226C7FEA236C6AD04FEA1262D2EB6E
:100FF0001363C1BFD218414048404140B8BF5B4273
:10100000192B88BF704710F0004F40F4000020F00B
:101010007F4018BF404211F0004F41F4000121F021
:101020007F4118BF494292EA030F3FD0A2F101026B
:1010300041FA03FC10EB0C00C3F1200301FA03F1A9
:1010400000F0004302D5494260EB4000B0F5000FCC
:1010500013D3B0F1807F06D340084FEA310102F18B
:101060000102FE2A51D2B1F1004F40EBC25008BF3D
:1010700020F0010040EA03007047490040EB000007
:10108000013A28BFB0F5000FEDD2B0FA80FCACF108
:10109000080CB2EB0C0200FA0CF0AABF00EBC25035
:1010A00052421843BCBFD0401843704792F0000F23
:1010B00081F4000106BF80F400000132013BB5E776
:1010C0004FEA41037FEA226C18BF7FEA236C21D0EC
:1010D00092EA030F04D092F0000F08BF0846704751
:1010E00090EA010F1CBF0020704712F07F4F04D11F
:1010F000400028BF40F00040704712F100723CBF32
:1011000000F50000704700F0004343F0FE4040F45B
:10111000000070477FEA226216BF08467FEA236319
:101120000146420206BF5FEA412390EA010F40F404
:10113000800070474FF0000304E000BF10F0004350
:1011400048BF40425FEA000C08BF704743F0964337
:1011500001464FF000001CE050EA010208BF704752
:101160004FF000030AE000BF50EA010208BF7047D9
:1011700011F0004302D5404261EB41015FEA010CEE
:1011800002BF84460146002043F0B64308BFA3F1E6
:101190008053A3F50003BCFA8CF2083AA3EBC253C8
:1011A00010DB01FA02FC634400FA02FCC2F12002E7
:1011B000BCF1004F20FA02F243EB020008BF20F01E
:1011C0000100704702F1200201FA02FCC2F1200284
:1011D00050EA4C0021FA02F243EB020008BF20EA79
:1011E000DC7070477BB972B90029BEBF00204FF098
:1011F000004106E008BF00281CBF6FF000414FF01F
:10120000FF3000F057B8ADF1080C6DE904CE0029AD
:1012100009DB002B1ADB70F0FFFCDDF804E0DDE9F0
:10122000022304B07047404261EB4101002B1BDBFD
:1012300070F0F2FCDDF804E0DDE9022304B0404286
:1012400061EB4101524263EB43037047524263EB4F
:10125000430370F0E1FCDDF804E0DDE9022304B0B3
:10126000404261EB41017047524263EB430370F02F
:10127000D3FCDDF804E0DDE9022304B0524263EB65
:101280004303704753B94AB9002908BF00281CBF5F
:101290004FF0FF314FF0FF3000F00CB8ADF1080C0B
:1012A0006DE904CE70F0B8FCDDF804E0DDE902235E
:1012B00004B07047704700BF2DE9F04F2DED108A44
:1012C000C1F80CD0C3689D46BDEC108ABDE8F08F14
:1012D00005F0D6FA002383F311882846A0470020A2
:1012E00006F048FEFEE705F06FFC06F0C1FD05F0D4
:1012F000C7FA00DFFEE710F8012B11F8013B012AC5
:1013000028BF9A42F7D0D01A7047034613F8012B32
:10131000002AFBD1181A01387047000000000000B5
:1013200070B586B00C4611461A46114B009305461F
:1013300074B1631ECDE9010300266846CDE903665A
:1013400009F080FF039BA34200D2EE5406B070BDAB
:101350009FED057B019068468DED027B049409F0BA
:1013600071FF06B070BD00BF00000000000000006B
:10137000E02A0708000000002DE9F04759EC108B27
:101380003D4B002240464946FFF77CFD002867D0D0
:1013900035A5D5E90045384F4FF0000A00260CE08E
:1013A000FFF714FC8046894632463B464046494694
:1013B0000AF1050AFFF766FDE8B1494622462B46C9
:1013C0004046FFF75FFD844622462B46404649468D
:1013D000BCF1000FE4D132463B46FFF7F7FB8046F5
:1013E000894632463B46404649460AF1010AFFF724
:1013F00049FD0028E1D1214B002240464946FFF734
:101400002DFD50B31AA5D5E9004517A7D7E9006708
:101410000CE0FFF7B1FAAAF1050A80468946174B9E
:10142000002240464946FFF719FDB0B14946224621
:101430002B464046FFF712FD844632463B46404667
:101440004946BCF1000FE4D10B4B0022FFF794FAA0
:101450000AF1FF3A80468946E1E75046BDE8F08749
:101460008246C8E7AFF3008000000000006AF84041
:1014700000000080B5F8E43E000024400000F03F8A
:101480002DE9F047B0F1000A2D4D4FF0000426DDA4
:1014900029A7D7E90067DFF8AC904FF00008BAF150
:1014A000040F2046294632463B460CDDFFF764FA1E
:1014B000AAF1050A04460D46BAF1000FEFD145EC3A
:1014C000104BBDE8F08742464B46FFF755FA0AF14C
:1014D000FF3A04460D46BAF1000FE0D1EFE7EED037
:1014E00015A7D7E900671AF1040FDFF858904FF0FD
:1014F00000082046294632463B460FDAFFF766FBD6
:101500000AF1050A04460D46BAF1000FD7D01AF1C8
:10151000040F2046294632463B46EFDB42464B4607
:10152000FFF754FB0AF1010A04460D46BAF1000F19
:10153000EDD1C4E7AFF3008000000000006AF8407E
:101540000000F03F0000244070B5C66984B0044636
:1015500030460D4612F08EF8204611F07DFD2046F3
:1015600011F0C8FD9FED087B03462946304607244D
:101570006A468DED027B8DF80040019312F006F96A
:1015800004B070BDAFF30080FFFFFFFFFFFFFFFF60
:101590002DE9F04FC768C669D0F804802DED028BA5
:1015A000282F87B004460D4672D040F223139F4285
:1015B00040F0858012F012FB9FED438B4FF0070A3D
:1015C0004FF00809E3683A2B14D008DD5B2B51D0AB
:1015D0005A2B40DC07B0BDEC028BBDE8F08F282B06
:1015E0003ED02E2BF6D129462046FFF7ADFFE3680B
:1015F0003A2BEAD1204611F02FFD204611F07AFD5A
:101600002946039030468DED048B8DF808A012F02A
:101610000FF82B78D5F804B0082B4BD096F834701F
:101620006F600221304685F8009010F0ABFDBA1CC7
:1016300002A986F834205B4600913A4614213046D0
:1016400012F032F89DF80830082B0DD1039930467E
:101650006AF0A6FF08E07B2B02D0B3F5927FB9D1E8
:101660002946304611F0C6FF42462946204614F06E
:101670005DFDA7E72946304611F0FCFF02A9204690
:1016800014F0FAFB02AA2946304612F07FF899E7D7
:1016900011F0E2FC29460022204613F021FF2046EB
:1016A00043463A46292111F0FBFCE069294611F036
:1016B000B1FD81E7594630466AF072FFAEE7044952
:1016C00010F0F8FCAFF30080FFFFFFFFFFFFFFFF0C
:1016D000943D07080000000030B5012285B00C21C0
:1016E00004460FF0A7FEE0B19FED117B0246124BBE
:1016F000043280ED017B02600FCB6D4685E80F0060
:101700000E4B0F491A6820460DF0F0F800222946CA
:1017100020461FF001FB204666F086FB012005B045
:1017200030BD20460DF090F8012005B030BD00BF5F
:1017300000000000000000F044240708049D002081
:10174000D8B9F0FF000000002DE9F04F2DED048B1B
:10175000036895B0DB689847002800F003850368AC
:101760009B4ADB689342834640F0F8840BF10C03FC
:101770009A46984B984D98699FED988ADFED988A24
:101780000BF10D0206923DF043FC7F289FED8E9BEE
:1017900040F3E580DBF8003058461B699847044663
:1017A000002800F019852B6A01332B62DBF800302A
:1017B00001225E680DF126014FF47A735846B04756
:1017C000012840F070839DF82630542B0ED8452B0D
:1017D0000FD9463B0E2B0CD8DFE803F0D40B0B0BD4
:1017E0000B0B0B0B0B0B0BC80BC8D000742B00F0B2
:1017F000C580DBF8003001225E680DF127010A2365
:101800005846B047012840F0D0849DF826309DF816
:10181000276046EA032637469BF8303436B207F194
:101820000409002F00F03C8340F21E41894500F37B
:101830003783DBF80010D1F80480002B00F00D8313
:101840004FF47A734A4651465846C04781459BF843
:101850000C8040F0A285404636F068FB81460028A7
:1018600000F0B6855AF806303246002150461EBABE
:101870005EF0DAFE864240F02D830123022F8BF8C2
:1018800030349BF80C3040F30583042FBBF80D6017
:1018900040F30383BBF80F90A3F138023C2A3ED8F3
:1018A000DFE812F0C10274023D003D003D003D0042
:1018B0003D003D003D006C02420206023D00DC019D
:1018C0003D0096013D003D003D003D008B013D0087
:1018D0003D0080013D003D00630158016C003D006A
:1018E0003F0134013D003D00F9003D003D003D0059
:1018F0003D00F3003D003D00ED003D003D00DB00FC
:101900003D003D003D003D003D00B40084003D0031
:101910003D003D003D003D003D003D006C00832149
:101920005846059360F01CF9059B2E482E4A0093FB
:10193000502109F0F1FE2B49DBF82C046AF006F87F
:101940002A48424641463EF0AFFB0024284B1C701B
:10195000204B98693DF05CFB7F283FF71BAF254A81
:10196000254941F6F4204EF0DFFEEEE723483EF035
:101970009BFB0021584660F0D5F8E7E7584637F062
:10198000F7F8E3E71E4ADBF82C141E483EF08CFB08
:10199000DBF800301C491E68584600230322B0477C
:1019A000DBF8003058469B689847CFE79BF80D302E
:1019B000022B00F0F383032B00F0DB83012BBFD15C
:1019C0005AF04CFB82E200BF36CC4AA20000000075
:1019D000FDA30108FC8D002010F4002000247449B0
:1019E00000007A4448F30020C87D0708F47D07080A
:1019F000C3A20120387A070808560708487A070862
:101A0000687A0708246B0708787A0708AB695A4692
:101A1000013349463046AB6138F000F907460028EB
:101A200040F0528301464022A74870F070FAA74860
:101A30004A46394630445EF0F7FD00BA0C900CAAD5
:101A4000584600970423012138F08EF80C9BA048DB
:101A50004A4631463EF028FB78E79E4B9E4E1A7868
:101A60009E4B002A18BF1E463046FFF74EFC012150
:101A7000034632460091584638F076F866E79849B2
:101A800040F25E204EF050FE60E7964940F25E2044
:101A90004EF04AFE5AE7BBF80D70BBF80F90924823
:101AA0007EBA99FA99F8B6B21FFA88F842463146DA
:101AB0003EF0FAFA8D484CF099FF202E00F2F781A3
:101AC000202E00F29783DFE816F09D03950395031F
:101AD0009503950395039503950395039503950346
:101AE000950395039503950395039503A103A5031A
:101AF000C303E1031D042204950395032604950303
:101B00009503950334044204490450045846314671
:101B10000BF10F03012260F053F875483EF00EF907
:101B200014E757F015FD0DF13009724B724A009021
:101B300020218DED029B484609F0EEFD4846FFF757
:101B4000E4FB4A46431C002100915846012138F02D
:101B50000BF8FBE6DBF82C14684A69483EF0A4FA5F
:101B6000012158465FF0DEFFF0E6AB6865480133BF
:101B7000AB6032464B4600213EF096FA5A46494643
:101B8000304638F04BF80746002840F0A7825E4BFD
:101B9000B3F83E2C002A40F0128308331E444B4613
:101BA0003246D0E740F25C7358483246012F18BFE6
:101BB0004B46594637F08EF8C8E6002300938DF85F
:101BC000303001230CAA1946584637F0CDFFBDE648
:101BD0006B6A4F4E4C4FB26A01336B62D7F81835BF
:101BE0009A4280F0AB813DF02DFFD6E90C3253EAEA
:101BF000020640F088814748B0EE480A3FF092FA6A
:101C0000002840F0AF81444E444807F0CDFA3368D5
:101C1000434A424803F580514FF00008C1F8643947
:101C20001168136083F80080316007F053FB366859
:101C300006F580533046D3F86479FFF766FBBF1B87
:101C4000874240F0CE82DBF800100120009032463F
:101C50003B468E6958460021B04777E6069E3744DA
:101C6000002307F8013C9BF80D30202B40F09383B4
:101C700016F8013F202BFBD03046FFF746FB60B142
:101C8000431E33440020C6F1010102E0D9425870DE
:101C900003D013F80129202AF8D0224B30461B68C4
:101CA000984700231A461946584637F0EFFE4DE68E
:101CB00058464A4631460BF111035FF081FF0C484C
:101CC0003EF03CF842E600BFC262001078560010B9
:101CD0003C7C0708C4A2012098F2002098F3002061
:101CE000A07D0708847D0708247D0708B021001027
:101CF00040290020C87B0708D07B0708B47B070871
:101D0000246B0708987C0708705600104C170020B9
:101D1000F8360020F03600204417002038F3002069
:101D20004817002034F300200DF1300948463EF0FA
:101D300005F8EB68B1480133EB603EF0B5F956F0B9
:101D40007DFBAF48B0EE480A3FF0ECF9002840F0C8
:101D5000F98100231A460421584637F097FE484679
:101D60003EF02EF860EE287A17EE900AFEF7ACFDF2
:101D700002460B46A3483EF097F9E7E5A24840F239
:101D80005C730022594636F0A5FFDFE59F4E002226
:101D900006F140083146012031F8023F5B0B1CBFC1
:101DA00003F1FF3300FA03F388451A44F4D100210C
:101DB000584636F07BFD0DF1300907460594CDF805
:101DC0001CA036F8023F5C0B1ED00122013C02FA37
:101DD00004F48F4A0A9227220B9200940AAA06CA98
:101DE000C3F30C0348465EF07DFEDBF8003022466C
:101DF000D3F800A0494600235846D047394622462A
:101E000048465EF011FC07464645DAD1DBF8003063
:101E1000059C1E68DDF81CA03FBA0C974946584641
:101E200001230422BBE57B4B1B78002B00F07C8157
:101E300000205AF0BDF90646002800F07E81D0F857
:101E4000E4340121024603EB83035846009137F046
:101E50008BFE30465AF0DCF978E502460A235146FB
:101E60005846C0479BF80C80404636F05FF8002883
:101E70003FF46BADDBF800300699D3F80490F21C08
:101E800005924FF47A735846C847059A82423FF448
:101E9000E9AC5AE50026B146FEE44FF00009FBE448
:101EA000002B40F0258100238BF830344DE5B7F549
:101EB0003A4F00F08B82B7F53B4F00F06583B7F5E2
:101EC000F24F40F09781042057F078FB584637F0E6
:101ED00099FE3BE59BF83034002B3FF436AD33469A
:101EE00002469BF80C104C483EF0DEF84B49DBF8FC
:101EF0002C0469F02BFD822158465FF031FE00234F
:101F00008BF8303421E5C01A61EB02010A1E03DAB6
:101F1000C31C184642F100028308D7F81815404840
:101F200000FB01F13F48A0FB010143EA827309096C
:101F30009210002099429041BFF65DAE3A493B486D
:101F40003EF07EF83A4B93F82833002B40F029817D
:101F500000F05AFC3748B0EE480A3FF0E3F800289A
:101F60003FF451AE33483DF0E9FE3B89692B96BF03
:101F7000314A4FF0000852F8238057F0E9FA06463C
:101F80003DF060FD2D4A0023FFF72CF93146CDE9E5
:101F900000802B4B2B4A2C483EF086F8B7F8C41231
:101FA000012902D929485EF023FBB7F8C61201299E
:101FB00002D927485EF01CFB264EDFF8A48006F10C
:101FC000080936F8021F012903D9D8F800005EF08D
:101FD0000FFB4E4508F10408F3D1D7F8A8210C2ACD
:101FE0001346A8BF0C23002A7FF70DAE1A4F0594A5
:101FF0001A4E4FF000083C4699465EE0707C070898
:1020000010220010807C07084C170020C0620010CE
:102010002CE50020BFA20120687B0708A07B0708F1
:1020200040420F00CDCCCCCCC05708080037002070
:1020300000500010F03600200422080800093D007E
:10204000DC7B070836CC4AA2E47B0708A0D8080846
:10205000A8D808088A58001018920020D2580010FA
:10206000F4210808718B012901D95EF0C1FAD7F873
:10207000100700284FD0B6F8FE13012901D95EF0F1
:10208000B7FAD4F8F00200284BD036F8021F012925
:1020900001D95EF0ADFAD4F8400400283ED0B6F87D
:1020A000781B012901D95EF0A3FA08F10108C8459F
:1020B00007F1200704F11C0459DAD7F8900500282D
:1020C000D0D1D7F89405CDE7DBF82C04D44969F0DA
:1020D0003DFC842158465FF043FD37E4DBF82C04D7
:1020E000D04969F033FC842158465FF039FD2DE476
:1020F0003A46DBF82C14CC483DF0D6FFCB49DBF850
:102100002C0469F023FC842158465FF029FD00234C
:102110008BF8303419E4D7F81407ACE7D4F844044A
:10212000BDE7D4F8F402B0E759F098FF00205AF068
:102130003FF8064600287FF482AE842158465FF0BF
:102140000FFD03E432F03EF8B94832F04DF8B948DB
:102150003DF0AAFFB84B01221A70FAE59847002813
:102160007FF404AB15B0BDEC048BBDE8F08F059C8B
:1021700049E500205AF01CF80646002800F02181AD
:10218000D0F8E4340121024603EB83035846009162
:1021900037F0EAFC30465AF03BF897E659F0DAFFA0
:1021A00094E6A6483EF092FDD2E6A549DBF82C0461
:1021B00069F0CCFB00238BF83034FFF7C6BBA14994
:1021C00040F25E200BF10F064EF0AEFA39464A4659
:1021D00030466FF09CFEE2E40A2005F0F3FEFFF7C4
:1021E000B4BB034698493A4641F6861046464EF03F
:1021F0009BFA28E595494346324640F25E204EF070
:1022000093FA63E6924B83F8D2855FE6914B002206
:102210001A605BE600283FF459AE8D4BDFED8E0A65
:10222000B3F8DA2C9FED8D0AD3F8E81C07EE902A5C
:10223000B3F8F625F8EEE77A404667EEA00A07EE17
:10224000902AF8EEE77A27EE800A50F0BBF93DE6D7
:1022500000283FF43BAE7E4BDFED7F0AB3F8DA2C6B
:102260009FED7E0AD3F8E81C07EE902AB3F8F62516
:10227000F8EEE77A404667EEA00A07EE902AF8EEFD
:10228000E77A27EE800A50F04BF91FE6A8F1060323
:10229000192B00F2A98001A252F823F0F3240008C0
:1022A000B5240008CD1E0008E9230008AF2400086B
:1022B000E9230008A5240008552500084B2500083F
:1022C0004525000833250008292500081B2500089E
:1022D000152500080B25000889240008CD1E0008DC
:1022E000812400087924000819240008112400081A
:1022F0000B24000801240008F72300089B24000891
:10230000912400085FFA88F050F01EFEDEE540469A
:1023100050F03EFADAE500283FF4D8ADDFED500A80
:102320004B4B4046D3F8E81CB0EE600A50F0A4F9DD
:10233000CCE5B9F1000F00F01081B9F5807F00F015
:1023400019814DF037FD47483DF0F8FCBEE54548A2
:102350003DF0F4FC40465FF09DFAB7E541483DF0A2
:10236000EDFC63205FF096FAB0E500283FF4AEADD7
:10237000374BDFED390AB3F8DA2CD3F8E81C07EE57
:10238000902AF8EEE77AB1EE000A67EEA00A40461E
:1023900050F0B8F99AE5069E6EE443464A46014677
:1023A00031483DF081FE3149DBF82C0469F0CEFA6A
:1023B000802158465FF0D4FB00238BF83034FFF7C0
:1023C000C4BA842158465FF0CBFB7FE53CF014FE95
:1023D000274841463DF068FE832158465FF0C0FB28
:1023E0008BF83094FFF7B1BA2249424640F25E20A2
:1023F0004EF09AF96AE50021022048F071FE65E589
:102400000021012048F06CFE60E535F099FE5DE5A5
:10241000042035F0A5FE59E5032035F0A1FE55E571
:10242000247C0708CC7C0708987A0708C87A070834
:10243000E86A0708F06A0708C5A2012000370020F3
:102440007C7A0708E47C0708047C0708607D07089D
:102450007056001010F30020CDCCCC3D0AD7233CA1
:1024600000007A4410220010E87A0708287B070849
:102470004C7B0708487D0708012035F071FE25E5F3
:10248000022035F06DFE21E5424B01221A701DE558
:102490000021042048F024FE18E50121042048F022
:1024A0001FFE13E53C4B012283F8A8210EE54DF0F9
:1024B00081FC0BE5394F3A4ED7F8F8000D2386F82A
:1024C000C830F8B10368DB689847F0EE407AD7F877
:1024D0000401C6ED317A002858D00368DB689847BC
:1024E000F0EE407A2F4AC6ED677A13780133137005
:1024F000ECE42A4F2A4ED7F8F8000C2386F8C830AF
:102500000028DFD1DFED287AE1E7234B012283F8B1
:10251000A921DBE448F00AFAD8E4244B244801223C
:102520001A7006F00BFED1E40121022048F0D8FD1C
:10253000CCE41B4B002283F8C82003F5005383F83A
:10254000A821C3E448F036F9C0E40121084648F068
:10255000C7FDBBE45FF0E2FFB8E4164B164A174E26
:10256000C3E9996202F12612C3F87C22144AC3F827
:102570008022E6E60F4B134A13491448C3E9991227
:10258000134AC3E99F02DCE63CF024FDDFED067A46
:10259000A8E700BFC1A20120002000100CAE00205F
:1025A00000000010C0A2012000000000C2A2012013
:1025B00028F30020705600101E001F00210020008C
:1025C0002F0049003B003C0021003A00510046002A
:1025D0003F0047000000000010B590F8E03090F890
:1025E000DCC0174C83F0010363F3000C80F8DCC0FF
:1025F0004FF48C62002120466FF089FC4FF4F0729A
:10260000002104F264406FF082FC0E4B9FED0A7BC8
:1026100003F5075203F5005003F534530021196008
:1026200000F6FC4382ED087B0022C0F8B826196052
:1026300010BD00BFAFF3008000000000000000F0FC
:1026400058220010000000109FED116BD0ED0F7AA2
:1026500080ED030AB5EEC00A0123F1EE10FA80ED19
:10266000066BC0ED097A80ED0F0A03720BD9DFED1E
:102670000A6A86EE807AF5EE407AF1EE10FA80ED85
:102680000A7A03D07047054B8362704765F098BFA4
:102690000000000000000000ABC222480000C07F24
:1026A000D0B5554C554E0027204632463B463F217B
:1026B00069F068F904F1280032463B46402169F090
:1026C00061F904F1500032463B46412169F05AF964
:1026D00004F1780032463B46422169F053F904F197
:1026E000A00032463B46432169F04CF904F1C80092
:1026F00032463B46442169F045F904F1F000324688
:102700003B46452169F03EF904F58C7032463B4664
:10271000462169F037F93A4B3A4919604720187158
:10272000482083F82400492083F844004A209FED84
:102730002E6B9FED2F7B83F864004B2083F8840081
:102740004C20002283F8A4004D244E2083ED046B1E
:1027500083ED0C6B83ED146B83ED1C6B83ED246BAD
:1027600083ED067B83ED0E7B83ED167B83ED1E7B75
:1027700083ED267B1A721A73196283F8282083F876
:102780002C20196483F8482083F84C20196683F8BC
:10279000682083F86C20C3F8801083F8882083F8C1
:1027A0008C20C3F8A01083F8A82083F8C44083F8D5
:1027B000E40083ED2C6B83ED2E7B83ED346B83ED96
:1027C0003C6B83ED367B83ED3E7B83F8AC20C3F816
:1027D000C010C3F8E01083F8C82083F8CC2083F839
:1027E000E82083F8EC20D0BD002D3101000000006E
:1027F000000000000000000020230020400D030026
:10280000501A0020ECEF08080D480E4AC3680E4924
:102810009FED097B10B4002443611C7008300462F2
:1028200080F82440094B5DF8044B80ED0A7B3DF0B5
:1028300007BC00BFAFF300800000000000000000F4
:10284000F8360020D8F50808E8710708C0570808CE
:1028500070B5234ED6F8F833D6F88845A6F8FC03B1
:10286000013382B00546C6F8F833ACB1002306F553
:10287000826001E0A3420FD01A010133815AA942BC
:10288000F8D1184C144420463DF058FA164802B0CE
:10289000BDE870403DF052BA04F006FCD6F8883529
:1028A000124A0190172B10D802EB031202F5A8442C
:1028B0009FED097B2582013384ED027B0198C6F8E8
:1028C0008835083405F008FBDDE7019805F004FBC6
:1028D000DCE700BFAFF3008000000000000000F064
:1028E00000500010085400100054001000000010A8
:1028F0002DE9F047E24BE34CE34FC4F8683534333D
:10290000C4F86C3504F2745300251D6004F5AF6300
:1029100004F5A9681D6004F28C53C8F800501D60CE
:1029200004F5B26304F24C581D6004F29453C8F8E5
:1029300000501D6004F5AA6804F5B363C8F80050A0
:102940001D6004F2545804F2A453C8F800501D60EE
:1029500004F5AB6804F5B563C8F800501D6004F2D7
:102960005C5804F2AC53C8F800501D6004F5AC6824
:1029700004F5B66304F5B7611D60C8F8005004F2B1
:10298000445204F2B4534FF07E5A04F2BC5800266D
:10299000DFF834C3C1F800A0012115601D60C4F840
:1029A000C015C4F840C5C4F8647584F87065C4F8EF
:1029B0007C65C4F88065C4F88465C4F88865C4F88B
:1029C0009C65C8F80050C4F8F81504F5B961AF4B20
:1029D0000B6004F5BA6104F2C4580D6004F2D451DE
:1029E000AB4A0D6004F2FC51C8F800200A6004F5FF
:1029F000C062DFF8D8E2DFF8D8C2C4F8A0E504F579
:102A0000BB60C4F8D8C51360C4F8CC65C4F80466CC
:102A10003BF048F804F5D5629FED977B156004F212
:102A2000AC6204F5D7614FF000084FF0704904F52F
:102A3000D463156004F2BC6004F5D66203ED027B3A
:102A400083ED007B0D60C2E9008984F89066C4F8CC
:102A5000946663F003F804F2EC6C8E49CCF80050F5
:102A600004F5DE6C8C4BCCF800A004F5E06CC4F8E7
:102A70001017CCF8005004F2FC6C8849CCF80050D8
:102A800004F5DF6CC4F81817CCF8005004F2F46CAD
:102A90008349CCF8005004F5E16C03F13802CCF81E
:102AA000005004F2047CC4F81467CCF8005004F21F
:102AB0001C7CC4F82867CCF8005004F5E46CC4F81A
:102AC0004C67CCF8005004F2247CC4F85067CCF872
:102AD000005004F22C7CC4F85467CCF8005004F584
:102AE000E66CC4F86067CCF8005004F2347CC4F89B
:102AF0006467CCF8005004F5E76CC4F86867CCF85C
:102B0000005004F23C7C84F87167CCF8005004F566
:102B1000E86C04F5F260CCF8005004F2447CCCF888
:102B2000005004F5E96CCCF8005004F5EC6C0CEDA9
:102B3000027B84F87267C4F87817C4F8883704F207
:102B40008473C4F88C271D60C4F87C67C4F8806760
:102B500062F084FF07F59A613DF070F9D4F8F03720
:102B6000C4F8C46703F07E43C4F8F0374D4BC4F893
:102B700028381833C4F82C3804F50063C3E90089F9
:102B800043E9028904F50263C3E9008943E9028944
:102B9000454BC4F8C037454BC4F8D037444BC4F854
:102BA000E837444BC4F80838434BC4F8103804F5F0
:102BB000FA6343E9028904F5FC6343E9028904F6F8
:102BC000340304F638021D6004F64403156004F66D
:102BD00054021D6004F5066315603146402204F678
:102BE00064001D6084F8E067C4F8EC67C4F80C6802
:102BF000A4F8146884F83068C4F84868C4F85C68BD
:102C0000C4F84C68C4F8506884F8F3676FF07FF933
:102C100004F6AC0104F6A8030D6004F50B614FF453
:102C200000021D600A6004F50C6300204FF00041B3
:102C300043E90201C4F8A46804F51765C3E9020179
:102C40001A6010339D42F9D12A601C4D1C4AA5F52B
:102C5000947300261A604FF07E53EB644FF001230B
:102C6000C4F8B839C4F8BC39C4F8C039154BC4F835
:102C700040382FE0AFF300800000000000000000AB
:102C8000E4FC080800000010E45600100024744919
:102C9000002474C93801090860FD08083CFD0808D3
:102CA00084010908D8000908B4FD08085C01090876
:102CB000D8FD080814010908380109088009001026
:102CC0000000C842AC0009085CFC0808BCFC08080D
:102CD000D0FC0808884BC4F88039884BC4F8983970
:102CE00000274FF000084FF0704945E902016FF0EE
:102CF000004305F180003146C4F8B43940E9028947
:102D0000C5E90289C5E90889C5E90A89C5E91889BB
:102D1000C5E91A89C5E91C8984F8846984F8906931
:102D2000A4F8B06984F8B269A4F8C46984F8D469D5
:102D3000AF6462F0B1FE724BC4F8003A012138333F
:102D400005F1D000C4F8043A62F0A6FE6D4BC4F859
:102D5000503A0221383305F59070C4F8543A62F0C5
:102D60009BFE694BC4F8A03A0321383305F5B870CF
:102D7000C4F8A43A62F090FE644BC4F8F03A3833D9
:102D8000C4F8F43A624BC4F8403B05F5F0703833B0
:102D9000C4F85C3BC4F8446BC4F8486BC5F8CC710C
:102DA000C5F8D071C5F8D471C4F8586B62F056FEFE
:102DB000584BC4F8B03B4FF40072314605F519701A
:102DC000C4F8906BC4F8946BC4F8986BC4F89C6B0F
:102DD000C4F8A06BC4F8A46BC4F8A86BC5F834722F
:102DE000C5F83872C5F83C72C5F84072C5F844722F
:102DF000C4F8C86BC5F84C72C5F85072C5F8547267
:102E0000C5F85872C5F85C72C4F8E06BC4F8E46D9C
:102E1000C4F8E86DC4F8EC6D6FF079F8D4F80C3EA6
:102E20003D4AC4F8F46D03F00043C4F80C3EC3F30C
:102E3000076366F3C71384F80F3ED4F8903E84F816
:102E4000216E0421A4F8E61D5B0C05F59261C1E931
:102E500000895B043821C4F8903E84F8201E2F4B73
:102E6000C4F8183E05F2A4412C330F6005F59B61B0
:102E7000C4F81C3E2A4B0F60C4F8F03D05F2DC415B
:102E8000284BC4F8F83D284B0F60C4F8003E05F20B
:102E9000E441264BC4F8083E254BC4F8503E0F6071
:102EA000244BC4F8803E05F5A061234BC4F8286E7E
:102EB00041E90289C4F8546EC4F8606EC4F8686EC3
:102EC000C4F86C6EC4F8706EC4F8846EC4F8886E72
:102ED0003146A4F8926E05F21C50C4F8946EC4F802
:102EE0008C2E4FF47072C4F8983E6FF010F8134BAC
:102EF000C5F8DC38BDE8F0878800090800FE08083E
:102F000034000908340009083400090834000908AD
:102F100024FE080878FE080850FF0808C0FE0808CC
:102F200010000908ECFF0808C8FF08089CFE080804
:102F300008FF08088CFF08082CFF0808380109085A
:102F400010B59FED136BDFED147A144CC0ED147ABD
:102F500000234FF0010C836280ED126BC362C0E965
:102F60000833C0E90A33C0E90C33C0E90E33C0E9C5
:102F70001033C0E9033300F10C0E03604371436169
:102F8000C36180F854C0836180F804C0846010BDC0
:102F900000000000000000000000C07F0CF80808DE
:102FA0009FED0F7B002200B5C0F8A4104FF0000E7B
:102FB0000D49C0F80CE0C0F820E0C0E90422C0E9E7
:102FC000062280ED0E7B80ED347B5DF804EB4260E1
:102FD0008260016042623BF0F5BC00BFAFF300804D
:102FE00000000000000000F0BCFB0808000000002A
:102FF0002DE9F04F2DED068BD34BD44A9A60002477
:10300000D34AD449D4481A6083B0FF25C3E90344A6
:103010005C60C3F813405D7565F0C6F9CF4BD04ACC
:10302000D048D14FC3F82C24D04A1A604FF0640E18
:10303000CF4AC3F83424C7E907EEC3E9014400F1DD
:10304000180E83F83044CB4BCB4ECC4983F85C460A
:10305000C0E906EE812200F1200EC0E908EEC3F8B7
:103060005826DFF8C0E3C64AC3F86426C6F800E075
:10307000C44ADFF8B4E31A60C7F800E0C24AC34BA1
:1030800073604FF47A7E00F1280CF360C6F808E014
:10309000DFF89883C0F800C000F14006C0E902CC18
:1030A000046102F1280C04751C7046600B4602F1A5
:1030B00018004FF0000A4FF0704BBC61C8E900AB3C
:1030C000B34FC2F800C0C2F80CC0C2F808C0C2E9D1
:1030D000060002F12000C2E9080043F8247B02F157
:1030E0004000C1E902440C7114611475A4315060B0
:1030F00043F8104C03F80C4C23F80A4C03F8084C26
:1031000003F8075C03F8064C10339942F0D1A14A4A
:10311000A14B02F134011A605961A04A1C711421BB
:10312000C3F8941044F62061C3E9261200204FF042
:103130007041C3E92A01C3E90244C3E90644C3E973
:103140002344974B974A984983F83C438620C3F819
:103150003803C3F844231960C3F84843934BC3F8BA
:103160004423934A83F83C4382F8AC430124C3F8D8
:103170003803C3F8484319608723C2F8A8338D4841
:103180008D4B8E4911609FED6A9B0524C2E9ED04C9
:103190004FF0000803F5C072C3F8088083ED069B6A
:1031A000C3F80C8083ED089B83ED0A9BC3F8008075
:1031B00083ED0C9BC3F8108083ED0E9B83ED109B79
:1031C00083ED129B83ED149B83ED169B603393423A
:1031D000E2D17B489FED7B8ADFF824B2DFF850A272
:1031E000282168F0E3FB7848252168F0DFFB774869
:1031F000592168F0DBFB76485A2168F0D7FB754B04
:1032000075484FF024021A712321744A1A6068F03D
:10321000CDFBFFF745FADFF81CE2714B714ACEF89F
:103220002020C2E90088C2E9028882F8148003F1F4
:1032300028021A624FF021028EF804206A4A1A60AE
:103240006A4ACEF800209FED3CAB22229FED3C7BEA
:103250001A71674A83F808804FF0000C02F5804627
:1032600002F5805702F54059C3E904BC83F80C808D
:1032700083F82C8083ED069B83ED0CAB5D485E4AA2
:1032800083ED098A202100238EED047B8EF80880CF
:103290008EF80C808EED069B68F074FB5748564AFA
:1032A000DFF85CB14F21002368F06CFB544A5548AD
:1032B00000231F2168F066FB534A544B9FED540ACC
:1032C00082F808804FF00C01F7EE008A4FF0000CF6
:1032D000117150491160F0EE680AC2E904BC82F82D
:1032E0000C80181D82ED069B4B4A1A60C3ED018AC3
:1032F00083ED058A83ED048A83ED038A83ED028AD8
:1033000083ED078A83ED068A5FF032F9434B444828
:10331000C3ED008A83ED018A83ED048A83ED038A7D
:1033200083ED028A83ED058A83ED068A84E000BF7F
:10333000000000000000000000000000000000F09D
:1033400000093D0000000000A45101208458080835
:10335000A00F0908BC01090830870020285201206D
:10336000C4010908BCD100100450012068040908F8
:1033700068380020E0520020F44F01201C0F01208B
:10338000C801090850040908FCD100109456012016
:10339000A0040908C8040908384700208F1E170038
:1033A000F0C40010047607082C05090880C100103D
:1033B00060C80010FC750708C02700201005090828
:1033C0006026002000000000B824002068250020AE
:1033D00010250020F49D00206024002040050908ED
:1033E00060830020743601205C0509088005090807
:1033F0007056001008210020801A0600B0870020B7
:1034000080841E00F8220020D8220020D43501201C
:103410000000C842ECEF0808A0050908F4350120B7
:1034200060D90808D40109088C040908F036002086
:1034300000000010E8480020D14BD24A1860C3EDCC
:10344000018A83ED028A83ED038A83ED048AC3ED4A
:10345000058ACD4BCD4883ED00ABCD4B212183EDCB
:1034600000AB002368F08EFACA4BCB481860C54AFF
:10347000CA48C3ED018A83ED028A83ED038A83ED96
:10348000048AC3ED058A2721002368F07BFAC4482B
:10349000BC4A3521002368F075FAC248B94A372181
:1034A000002368F06FFAC04AC04BDFF870E3C049F0
:1034B000DFF86CC311604FF0260B82F804B04FF0B8
:1034C000340B9FEDAB7B83F804B042F2046B1960C0
:1034D000AEF804B0B749CEF800104FF0270B8EF8C5
:1034E00006B043F2324E82ED047B83ED047BCCF8D0
:1034F0000010ACF804E0C2E90A884FF0330EC3E9CB
:103500000A8882F8088082F80C80C2F8208082F84D
:10351000248083F8088083F80C80C3F8208083F827
:10352000248082ED069B83ED069BA34882ED0C8AE6
:1035300083ED0C8A934A8CF806E00521002368F09D
:1035400021FA9E488F4A3121002368F01BFA9C49DA
:103550009C489D4B81F8088081F80C80C1F824803C
:10356000086081ED069BA6F2C471DFF8B8E2DFF8CF
:10357000B8C25960A6F6440B9149C3F808B0934B02
:10358000CEF820300B62CCF820308F4B9049196078
:103590009FED797B8A498F4B8B624FF0290B81F825
:1035A00004B001334FF02A0B81ED047BCEF800000C
:1035B000CEF828308EF804B0CCF800008649874851
:1035C0008EF8088001334FF02B0BCCF828308CF8A4
:1035D00004B0834B8EF80C804FF02C0B8EED047BE7
:1035E0008CED047BCEF824808EED069B8CF8088051
:1035F0008CF80C80CCF8248080F8088080F804B027
:103600008CED069B80F80C808162013199624FF04D
:103610002D0C744983F804C0734B8B624FF02E0C51
:10362000724B81F804C072499960724B724999607B
:103630006C496B4BC0F8248081ED047B81ED069BC7
:103640006049016083ED047B83ED069B01F1240357
:1036500080ED047B036280ED069B6148019101606F
:10366000604980F8088080F80C80C0F824800362EC
:10367000A3F1240008600B6281F808805B4B81F89D
:103680000C80C1F824805D49196008464FF0190C80
:10369000584983F804C05A4B08604FF01A0C81F85F
:1036A00004C01921C3E90118564A5748C3F82C80B1
:1036B0004FF4807199631A21516054491960116067
:1036C0002831196211624FF00101C2F82C809985EE
:1036D000918540F2011191630021C3E90401C2E91F
:1036E0000401C3E90988C3E90C88C2E90288C2E978
:1036F0000988C2E90C88C3F80C8083F83C8082F802
:103700003C8083ED069B82ED069B5DF0A9FBDFF814
:103710001CE13F4ACEF800200C212832DFF810C10E
:103720003C4BCEF82C10CEF820204FF003013A4A43
:103730008EF80410B1EE007A4FF4FD618EED0C7A34
:103740008EF808808EF80C80CEF824804FF0010BA4
:10375000CCF800301360CEF8281028338EED049B8F
:103760008EED069B4FF0050E8CF8088062E000BFDE
:1037700000350C0000000000804F12000000000027
:1037800020330120400D0300304800201026002087
:10379000284800204833012060D908083826002036
:1037A000C0250020E8250020B03D0020783D002005
:1037B000CC050908B0050908C083002098830020C3
:1037C00030830020FC050908F83201202006090892
:1037D000EC05090805030A0008030A00A08200207E
:1037E00070820020408200200A030A00F850012065
:1037F000257F0508EC5001203D7F0508700609086B
:103800008048002040480020C0D401003406090848
:1038100004070908C80609089881002040330120E0
:103820003833012000830020D0820020088200204D
:10383000D08100208CF80C80CCF82480CCF820308B
:103840001362CCF82810CCF82CE08CED049B8CEDA6
:10385000069B8CF804B0CCED0C8A0F234FF0020CC1
:1038600082F8088082F80C80C2F82480D3629162CA
:10387000CC4B82F804C082ED049B82ED069BC2ED26
:103880000C8AC94ADFEDC97A1A604FF4FD6CC3F89F
:1038900028C028324FF00D0C4FF00F0E9FEDC40AD8
:1038A000C448C3ED0C7A0E211A6283F804C083F871
:1038B000088083F80C80C3F82480C3F82CE083EDE3
:1038C000049B83ED069B68F093F89FEDB90ABA4814
:1038D0000F2168F08DF89FEDB60AB848112168F005
:1038E00087F89FEDB30AB648122168F081F8B54B0E
:1038F000B049196091F82420AF495A73596091F882
:103900002420B1499A734FF00D0C83F80CC09960D4
:1039100083F81480A94883ED048AAC4B90F82420E6
:103920001860A748DFF834E383F814805A734FF027
:103930000F0C90F824208EF806C04FF01008DFF826
:1039400020C358609A73996083ED048A83F80C80D1
:1039500040F60D63AEF804309D4A9E49CEF8001043
:1039600041F21013ACF8043012231160CCF80010AF
:103970008CF8063098488CED028A41F21343B0EE81
:10398000680A8CED038A14214FF0150C8EED028A23
:103990008EED038A938082F806C082ED028A82ED62
:1039A000038A68F025F88D48B0EE680A152168F0A2
:1039B0001FF88B4B844999608749196091F824203E
:1039C00086495A7391F824209A73864A59600024D4
:1039D0004FF0130C844983F80CC01160834883EDC9
:1039E000048AB0EE680A1C751D211623938067F0C7
:1039F000FFFF9FED7F0A7F481E2167F0F9FF7E4B96
:103A00007E4818607E4A7F48C3ED018A83ED028AB2
:103A100083ED038A83ED048AC3ED058A0721002321
:103A200067F0B0FF784B75481860754A7748C3ED6A
:103A3000018A83ED028A83ED038A83ED048AC3ED54
:103A4000058A0921002367F09DFF714B6B481860C0
:103A50006B4A7048C3ED018A83ED028A83ED038AC5
:103A600083ED048AC3ED058A0A21002367F08AFFEB
:103A7000694B62481860C3ED018A83ED028A83EDC9
:103A8000038A83ED048AC3ED058A644B56491960A5
:103A90000B229A8062485A4A5421002367F072FF31
:103AA000604B56481860564A5F48C3ED018A83ED63
:103AB000028A83ED038A83ED048AC3ED058A5521CA
:103AC000002367F05FFF594B4C4818604C4A584838
:103AD000C3ED018A83ED028A83ED038A83ED048AB4
:103AE000C3ED058A5621002367F04CFF514B434834
:103AF0001860434A5048C3ED018A83ED028A83ED82
:103B0000038A83ED048AC3ED058A5721002367F0F9
:103B100039FF4A4B39481860394A4948C3ED018A90
:103B200083ED028A83ED038A83ED048AC3ED058A5F
:103B30005821002367F026FF424BDFF828C1424A94
:103B40004FF0200018734FF0030140488CF80C1020
:103B50003F4904603F48CCF800004FF0500E086029
:103B6000106018603C488CF804E0CCF808004FF076
:103B7000510C81F804C04FF0230C81F80CC0886010
:103B8000522106F5805590609860117182F80CB052
:103B9000A7F6F87053221A7167F046FFA5F5A04208
:103BA000134661E0608100208C060908333323400E
:103BB0000000484340890020F8880020B088002099
:103BC00068880020DC9D00205C070908B49D002067
:103BD0007C9D00204007090820880020D88700200D
:103BE0008C9D00206033012078070908782100208F
:103BF00000007A44302100201834012060D90808E0
:103C0000400D0300B0220020003401208822002053
:103C1000E833012060220020D033012068330120E6
:103C2000C0480020B833012038220020A0330120F2
:103C30001022002088330120E82100207033012069
:103C4000C0210020AC500120BC5001202850012090
:103C5000CC50012094070908000080BFCC9D0020B3
:103C6000A49D0020DC500120C2F8A04FC2F8A84F4C
:103C70002146242203F6AC70C3F88C4FC3F89C4F46
:103C8000C3F8A44FC3F8904FC3F8944FC3F8984FAC
:103C90006EF03DF9A7F5805303F6E87090222146B7
:103CA00047E90B4447E9084447F8304C47F8244CAF
:103CB0006EF02DF92022214607F19000C7E91F443C
:103CC000C7E92244BC67C7F884406EF020F920227F
:103CD000214607F1B0006EF01AF94022214607F1A3
:103CE000E800C7E93444C7E93644C7E938446EF010
:103CF0000EF93222214607F5BC70C7E94C44C7E9EA
:103D00004F44C7E95744C7E95244C7E95444C7E997
:103D10005A44C7E95C44C7E94A44C7F83841C7F880
:103D20005841C7F84441C7F864416EF0F0F84022AA
:103D3000214607F5DA7087F8AE4187F8B341C7F836
:103D4000AA41C7F8AF416EF0E2F84022214607F5DC
:103D5000FA706EF0DCF84022214607F50D706EF027
:103D6000D6F84022214607F51D706EF0D0F82022CB
:103D7000214607F52D706EF0CAF82022214607F57E
:103D800035706EF0C4F82022214607F53D706EF0C4
:103D9000BEF82022214607F545706EF0B8F82022C3
:103DA000214607F54D706EF0B2F82022214607F546
:103DB00055706EF0ACF82022214607F55D706EF06C
:103DC000A6F82022214607F565706EF0A0F8402283
:103DD000214607F57570C7E9EE44C7E9F244C7F814
:103DE000B443C7F8C443C7F8C043C7F8D0436EF024
:103DF0008EF82022214607F214406EF088F8202227
:103E0000214607F234406EF082F84022214607F244
:103E10008440C7F85844C7F86044C7F85444C7F80A
:103E20005C44C7F86444C7F87444C7F86844C7F8EA
:103E30006C44C7F87044C7F87844C7F87C44C7F8A6
:103E400080446EF064F84022214607F2DC40C7F857
:103E5000C844C7F8C444C7F8CC44C7F8D044C7F82E
:103E6000D444C7F8D8446EF052F84022214607F2F5
:103E70002C50C7F81C45C7F82045C7F82445C7F89B
:103E800028456EF044F82022214607F27C50C7F8FE
:103E90007045C7F87845C7F86C45C7F874456EF0AB
:103EA00036F82022214607F29C506EF030F8A5F536
:103EB000A04303F5AF5303F1080020222146C7F8C1
:103EC000E045C7F8BC455C60C7F8D445C7F8C045B5
:103ED000C7F8C445C7F8C845C7F8CC45C7F8D045AA
:103EE000C7F8D845C7F8DC456EF011F82022214606
:103EF00007F5C260C7F80846C7F80C466EF007F829
:103F00004022214609F5AE606EF001F840222146BC
:103F100009F5B6606DF0FBFF4022214609F5BE6051
:103F20006DF0F5FF4022214609F5C6606DF0EFFF08
:103F30002022214609F5CE606DF0E9FF20222146BE
:103F400009F5D2606DF0E3FF2022214609F5D66025
:103F50006DF0DDFF8022214609F5DB60C9F8D4460B
:103F6000C9F8D0466DF0D3FF2022214609F5EB6059
:103F70006DF0CDFF4022214609F5EF606DF0C7FFDF
:103F80008022214609F2BC70C9F8B8476DF0BFFF26
:103F90008022214609F63C006DF0B9FF80222146BF
:103FA00009F6BC006DF0B3FF4FF40072214609F62C
:103FB0004C10C9F84049C9F84849C9F83C49C9F802
:103FC00044496DF0A4FF2022214609F64C306DF0E3
:103FD0009EFF2022214609F66C306DF098FF3C22AE
:103FE000214609F68C306DF092FF4FF400722146A5
:103FF00009F6C8306DF08BFF2022214609F6C85023
:104000006DF085FF2022214609F6E8506DF07FFF14
:104010004022214609F608606DF079FF40222146D2
:1040200009F66860C9F8484EC9F8584EC9F84C4EB0
:10403000C9F8504EC9F8544EC9F85C4EC9F8604EE4
:10404000C9F8644E6DF063FF4FF40072214609F623
:10405000C860C9F8A84EC9F8B84EC9F8AC4EC9F83E
:10406000B04EC9F8B44EC9F8BC4EC9F8C04EC9F834
:10407000C44E6DF04CFF2022214606F1C8006DF0C1
:1040800046FF2022214606F1E8006DF040FF4FF484
:104090000072214606F584706DF039FF202221461A
:1040A00006F542706DF033FF2022214606F54A7076
:1040B0006DF02DFF4FF48072214606F552706DF0C1
:1040C00026FF2022214606F589606DF020FF202280
:1040D000214606F58D606DF01AFF4FF4807221467F
:1040E00006F591606DF013FF2022214606F5B160C0
:1040F0006DF00DFF2022214606F5B5606DF007FF3B
:104100004FF48072214606F5B9606DF000FF4FF460
:104110008072214606F5DD60C6F8C846C6F8D84666
:10412000C6F8CC46C6F8D046C6F8D446C6F8DC4633
:10413000C6F8E046C6F8E4466DF0E9FE40222146A6
:1041400006F60800C6F8E847C6F8F847C6F8EC4790
:10415000C6F8F047C6F8F447C6F8FC47C6F800486A
:10416000C6F804486DF0D3FE5022214606F66800DA
:10417000C6F84848C6F85848C6F84C48C6F85048EB
:10418000C6F85448C6F85C48C6F86048C6F86448A3
:104190006DF0BDFEC022214606F6EC00C6F8E048F0
:1041A000C6F8E848C6F8B848C6F8C848C6F8DC48B3
:1041B000C6F8E448C6F8BC48C6F8C048C6F8C448C3
:1041C000C6F8CC48C6F8D048C6F8D448C6F8D8488F
:1041D0006DF09DFEC022214606F6BC10C6F8B0491F
:1041E000C6F8B849C6F8AC49C6F8B4496DF08FFEB8
:1041F0002422214606F61C30C6F8904AC6F8984A92
:10420000C6F8A04AC6F8A84AC6F8B04AC6F8B84ADE
:10421000C6F8C04AC6F8C84AC6F8D04AC6F8D84A4E
:10422000C6F8E04AC6F8E84AC6F8F04AC6F8F84ABE
:10423000C6F8804AC6F8844AC6F8884AC6F87C4A56
:10424000C6F88C4AC6F8944AC6F89C4AC6F8A44AEE
:10425000C6F8AC4AC6F8B44AC6F8BC4AC6F8C44A5E
:10426000C6F8CC4AC6F8D44AC6F8DC4AC6F8E44ACE
:10427000C6F8EC4AC6F8F44AC6F8FC4AC6F8004B41
:10428000C6F8084BC6F8104BC6F8184BC6F8044BD6
:10429000C6F80C4BC6F8144B6DF039FE24222146AB
:1042A00006F64C30A6F8444BA6F84A4BC6F8404BED
:1042B000C6F8464B6DF02BFE2022214606F67C30D8
:1042C000A6F8744BA6F87A4BC6F8704BC6F8764B36
:1042D0006DF01DFE2022214606F6AC30C6F8A04B3C
:1042E000C6F8A84BC6F89C4BC6F8A44B6DF00FFE61
:1042F0002022214606F6DC30C6F8D04BC6F8D84B53
:10430000C6F8CC4BC6F8D44B6DF001FE4FF43C72AE
:10431000214606F60C40C6F8004CC6F8084CC6F814
:10432000FC4BC6F8044C6DF0F2FD4FF43C72214694
:1043300006F6FC606DF0EBFD4FF4BC72214605F50E
:104340000770C5E97C44C5E97E44C5E98244C5E9F6
:104350008444C5F8EC41C5F80442C5F80042C5F8EC
:1043600018426DF0D4FD4FF4BC72214605F565701E
:104370006DF0CDFD2422214605F23460C5F80C45D0
:10438000C5F82445C5F81045C5F81445C5F81845C5
:10439000C5F81C45C5F82045C5F82845C5F82C4585
:1043A000C5F83045C5F83445C5F83845C5F8404529
:1043B000C5F84445C5F84845C5F84C45C5F85045CD
:1043C000C5F85845C5F85C45C5F86045C5F864456D
:1043D000C5F86845C5F87045C5F87445C5F8784511
:1043E000C5F87C45C5F88045C5F88845C5F83C4505
:1043F000C5F85445C5F86C45C5F88445C5F88C45E5
:10440000C5F89045C5F89445C5F89845C5F8A04548
:10441000C5F8A445C5F8A845C5F8AC45C5F8B045EC
:10442000C5F8B845C5F8BC45C5F8C045C5F8C4458C
:10443000C5F8C845C5F8D045C5F8D445C5F8D84530
:10444000C5F8DC45C5F8E045C5F8E845C5F8EC45D4
:10445000C5F8F045C5F8F445C5F8F845C5F8004677
:10446000C5F80446C5F80846C5F80C46C5F89C458D
:10447000C5F8B445C5F8CC45C5F8E445C5F8FC45D4
:10448000C5F81046C5F82846C5F83046C5F81446A4
:10449000C5F82446C5F82C46C5F81846C5F81C468C
:1044A000C5F820466DF033FD06F5B553C5F8A046B6
:1044B000C3E90144DC6006F5B453C3E9004406F5E2
:1044C000B653C822214605F5DB60C5F8C046C5F8DD
:1044D0007446C5F87C46C5F88C46C5F89446C5F8C0
:1044E0009C46C5F85846C5F86446C5F87046C5F8F8
:1044F0007846C5F88846C5F89046C5F89846C5F888
:10450000B046C5F8C846C5F85C46C5F86046C5F86B
:104510006846C5F86C46C5F8B446C5F8B846C5F84F
:10452000BC46C5F8CC46C5F8D046C5F8D4465C6054
:104530006DF0EDFC06F5BD536422214605F2BE7018
:10454000C5F8A047C5F8B447C3E90144C3E903442B
:10455000C5F8B847A5F8BC476DF0D9FC80222146C4
:1045600006F5C250A5F83E48C5F82248C5F82648C9
:10457000C5F82A48C5F82E48C5F83248C5F8364867
:10458000C5F83A486DF0C3FC06F5C653C5F8C048F7
:10459000C3E90144DC6006F5C7532022214605F536
:1045A0000F60C5F8E048C5F8D0485C60C5F8E84839
:1045B000C5F8EC48C5F8D448C5F8D848C5F8DC4873
:1045C0006DF0A5FC2022214605F69810C5F830496B
:1045D000C5F84849C5F85049C5F85849C5F8604973
:1045E000C5F86849C5F87049C5F87849C5F88049E3
:1045F000C5F88849C5F81449C5F81849C5F81C49D3
:10460000C5F83849C5F83C49C5F84049C5F81049CE
:10461000C5F82049C5F82449C5F82849C5F82C49EA
:10462000C5F83449C5F84449C5F84C49C5F854495A
:10463000C5F85C49C5F86449C5F86C49C5F87449C2
:10464000C5F87C49C5F88449C5F88C49C5F8904936
:104650006DF05DFC06F5D25206F5CE56C5F8C049A0
:10466000C5F8BC49C5F8CC49C5F8D049C5F8D44906
:10467000C5F8D849C5F8E049C5F8E449C5F8E8499E
:10468000C5F8EC49C5F8F449C5F8F849C5F8FC493E
:10469000C5F8004AC5F8084AC5F80C4AC5F8104ADA
:1046A000C5F8144AC5F81C4AC5F8204AC5F8244A7A
:1046B000C5F8284AC5F8304AC5F8344AC5F8B8499B
:1046C000C5F8C849C5F8DC49C5F8F049C5F8044A39
:1046D000C5F8184AC5F82C4A214605F678207460BA
:1046E000C5F8384AC5F8404AC2E90144C2E9034462
:1046F0004FF4BC72C5F83C4AC5F86C4AC5F8744A18
:10470000C5F8544AC5F8584AC5F85C4AC5F8604A25
:10471000C5F8644AC5F8684AC5F8704A6DF0F7FBF9
:1047200005F60C40C5F8004CC5F8044C80ED008A35
:1047300005F6144080ED008A05F6184080ED008AE9
:1047400005F61C4080ED008A05F6244080ED008AC5
:1047500005F628403022214680ED008A05F66C409F
:10476000C5F8F44BC5F8FC4BC5F8304CC5F8344CD3
:10477000C5F8384CC5F8F04BC5F8F84BC5F8084CEF
:10478000C5F8104CC5F8204CC5F82C4CC5F83C4C6D
:10479000C5F8404CC5F8444CC5F8484CC5F84D4CDC
:1047A000C5F8514CC5F8554C85F8594CC5F85A4CCC
:1047B000C5F85E4CC5F8624CA5F8664CA5F8694C86
:1047C00085F86B4C6DF0A3FB3022214605F6AC401A
:1047D000C5F89C4CA5F8A84C85F8AB4CC5F8A04C86
:1047E000C5F8A44C6DF093FB924BCAF80030924B85
:1047F000CAF808304FF08073C5F8DC4CC5F8E84CB7
:10480000C5F8E04CC5F8E44CCAF82D308AED06AB8B
:104810008AED0EAB8AED10AB8AF848B0AAF82440B6
:104820008AF82C40CAF8344063F04CFB0AF59C61CE
:1048300081ED008A0AF2E44181ED008A0AF59D616A
:1048400081ED008A0AF2EC4181ED008A0AF59E6151
:1048500081ED008A0AF5A06181ED008A0AF2045117
:1048600081ED008A0AF5A16181ED008A0AF21C51EE
:1048700081ED008A0AF5A46181ED008A0AF22451D3
:1048800081ED008A0AF5A56181ED008A40F20113ED
:104890000AF22C5181ED008AAAF8BC330AF5A66110
:1048A000664B81ED008ACAF8D0330AF23451644B6A
:1048B00081ED008AA7F6C872CAF8DC340AF5A76150
:1048C000604B81ED008ACAF8C4438AF8BE43CAF837
:1048D000C043AAF8D443CAF86C44CAF87044CAF872
:1048E00074448AF8D844CAF8F444CAF8F844CAF8B8
:1048F000FC44CAF80C45CAF81045CAF83C25CAF869
:104900001835FDF7F5FF0AF580524F4BC2F86032BB
:104910000133C2F868320AF2EC73C2F87032A2F8BE
:104920006442A2F86C42A2F8744203F68C2302F5AA
:10493000367225461D701D815B600C339342F9D1A0
:10494000424AB2F82433C2F8F85223F4FF4323F06A
:104950007F03A2F82433D2F8E832C2F8085303F0F8
:104960006043C2F8E832D2F82433C2F8105302F59B
:104970003C741746C3F30E0307F56570A4464FF069
:1049800070470026C2F824330023ECE80C67C2F815
:10499000E032C2F8FC32C2F80433C2F80C33C2F879
:1049A0003833C2F83C33C2F84033C2F85433C2F84B
:1049B0005833C2F85C33264BC2F82033002382F808
:1049C000EB3201234CE90267C4E91067C2E9B6552E
:1049D000C2E9D155C2E9D355C2F82853C2F8003311
:1049E00050F8346C1B4B40F82C3CA0F5657706F072
:1049F0007F43C7E9DB55C7E9DF5540F8343CC7F8CA
:104A0000645387F86353C7F87453C7F890534FF44F
:104A1000A062002120260027C4E9266700256DF04A
:104A200076FA04F1A40204F2A45104F5B26013462C
:104A30002C4614E0F8080908E4010908CDCC9C3F95
:104A4000E0080908B00709087653001000100010AC
:104A5000C808090810080908143399420AD093427B
:104A6000FAD38342F8D81C601C46143399424FF0A5
:104A70000105F4D115B1E44BC3F89043E24B002299
:104A800083F8982803F52660AAF81823002103F577
:104A90000B6303F8102C23F80F2C43F80C1C43F87D
:104AA000081C43F8042C1961C3E900222433834213
:104AB000EFD1D54B83F8502A03F6A102002302F868
:104AC000243B01330C2BFAD1D04BD14E9FEDE28A1F
:104AD0009FEDC99B03F5E46200245C6183ED1E9B9E
:104AE0009C619C609C62DC60DC621C61DC64DC615B
:104AF0001C651C621C665C629C639C64DC655C6675
:104B000083F8684083F86940DE6683ED1C8A83ED94
:104B1000208A83F88C40C3E90C44C3E91044C3E9FC
:104B20001544C3E92144C3F89040C3E900449833D5
:104B30009A42D2D1B74D2822002105F5C07085F8E0
:104B400078416DF0E4F9B44BC5F8B0319FEDAC7B22
:104B500030339FEDC10AC5F8D86105F5D87000263D
:104B6000C5F8D031032385ED707B85ED727B00F5B0
:104B7000D05785F8B431C5E97C44A5F8A84185F83B
:104B8000AA4185F8B84185F8BC41A5F8F84185ED02
:104B9000789B85ED809B85ED758A85ED7A8A85ED1C
:104BA0007B8AFDF751FD4FF48C62314605F5167096
:104BB000C5E98D44C5E99444C5F82442C5F81842B6
:104BC000C5F82042C5F82842C5F8484285ED829BC9
:104BD00085ED849B85ED8B8A85ED8C8A85ED8F8AAA
:104BE00085ED908A85ED918A85ED938A6DF08FF938
:104BF0004FF48C62314605F69C00C5F8B8466DF05E
:104C000086F905F6FC4383ED008A05F550634FF005
:104C100001084FF4007283ED008A314605F6045313
:104C200005F60C5083ED008A85F8088D6DF06FF95C
:104C30007A4BC5F8303FC5F84C3F794BC5F81C3F5F
:104C4000784BC5F8183F784BC5F8343F774BC5F81B
:104C5000503F4FF40003C5F80C3F4FF0FF3305F50C
:104C600080597349C5F8683FA7F53A6005F5776341
:104C7000C5F8104F85F8144FC5F8484F85F86C4FAC
:104C8000C5F8744FC5F8784F85F87C4FC5F8E04FEC
:104C9000C5F8E44FC5F8E84FC5F8EC4FC5F8F04F3C
:104CA000C5F8F44FC5F8F84FC5F8FC4F83ED008AFE
:104CB000C5F8648F89ED008A89ED018A89ED028A41
:104CC00089ED038AFEF76CF95A4BC9F8AC313246CC
:104CD000594BC9F810303146A7F6B820C9E93A4413
:104CE000C9E93F8489F8F040C9F80441C9F8B041E6
:104CF0003CF0FEFA5149A7F55870FEF751F9504BB8
:104D00005049C9F85038A7F522701C46FEF748F9FB
:104D10004D49C9F8284905F5D050FEF741F94949F0
:104D2000C9F8004AA7F1D800FEF73AF9C9F8D84AFD
:104D3000404BC7F8B4300022C7F804803E81BE72F1
:104D4000FE60C7F8B860384611463CF0D1FA3F4BD8
:104D500007F5EB679F42EBD103F50C673C464FF03C
:104D600000084FF0704964E8C88939489FED3A8AD5
:104D700084F82863C5E98866C7E90489C4E9CF6671
:104D8000002539F047FE334845F0E6FD302229463C
:104D900007F19400C4E9DD66C4E9DF66C4E9E566AD
:104DA000C4E9E966A4F84863C4F85C6384EDD88A72
:104DB00084EDD98A84EDDA8AC4F86C6384EDDC8AE8
:104DC00084EDE18A84EDE28A84EDE38A84EDE48A6D
:104DD00084EDE78A84EDE88A84F8B0636DF097F893
:104DE000C7E93489C7E93889C4F8E46384EDFB8AEC
:104DF00034E000BFAFF3008000000000000000F0CE
:104E0000000000000000000000100010581A001000
:104E10000000C07F0020001020080908A808090829
:104E2000F4010908B8080908FC0109080402090886
:104E30000C02090880080908680809081002090816
:104E4000900809081C02090828020908604A001095
:104E500010300010802F001000000000C7F8C8605C
:104E600007F1E80307F51A72C3E900891D811033C1
:104E70009342F9D11FED088AC4F8885504F5B2634E
:104E800083ED008A04F2945383ED008A04F5B36342
:104E900083ED008A302204F2CC53002104F5BA607D
:104EA00083ED008AC4F8F853A4F8FC536DF02FF892
:104EB00004F5C26282ED008A04F2146282ED008A77
:104EC00004F5C3629FEDA89B82ED008A04F21C6288
:104ED000AB4F82ED008A04F5C46282ED008A0122A4
:104EE00084F8402684F8385687ED0A9B87ED0C9BA2
:104EF00087ED008A3AF0A6FDC7E90201A7F58C40CC
:104F0000F7EE007ADFF82093AAF8485BA0F2B44AE3
:104F1000CAED007ADFF814B3DFF814A3994B9A4A6C
:104F2000C9F800A0DFF80C93CBF800909749C0EDCA
:104F3000D77AC4EDD57A04F5C96B9FED8D7B8BEDE7
:104F4000008A196004F5CC6B116091498BED008AE1
:104F5000C4F8AC1304F2646BA0F2AC41C4F84C5634
:104F6000C4F8505681ED008A8BED008AA0F52761C8
:104F700082ED047BC4F85053C4F8585304F5CD6B4C
:104F80009FED7D7B04F26C6481ED008A84ED008AE4
:104F90008049DFF8A4C2DFF8A4E280EDD68A242499
:104FA00087ED169B7C487D4F14717D4E086023244D
:104FB0001C711D721D7382ED069BDFF884A2DFF861
:104FC0008492157215738BED008A762483ED047B31
:104FD00074497548CEF800A083ED069B734BCCF85E
:104FE0003843CEE90155C7E9007706F5F078CCF8EB
:104FF0004493CCF800308CF83C53BD6063F0D4F996
:105000003046783663F0E6F9B045F9D1DFF838C2BA
:10501000674B684FDFF83482674ECCF81C80002461
:105020004FF07E59CCE90034CCE90244CCF8109022
:10503000CCF81490CCF81890DFF814C2C7F81CC054
:105040005E4DC7F81090C7E90034C7E90244C7F8BD
:105050001490C7F818905A4F5A4AF761C6E90034BD
:10506000C6E90244C6F81090C6F81490C6F8189025
:10507000554EDFF8E0E1EE61C5E90034C5E90244D0
:10508000524BC5F81090C5F81490C5F81890504DC3
:10509000C2F800E04F49D561C2E901444E48D460EE
:1050A000C2F81090C2F81490C2F818904B4AC3F896
:1050B00000E0DA61C3E90144DC60C3F81090C3F892
:1050C0001490C3F8189063F06FF945494548464D70
:1050D000DFF88481DFF884A1444F454E63F064F922
:1050E0004449454863F060F94449454863F05CF938
:1050F000444B454A454911601D601031444D916152
:10510000C2F85C534FF47F41424D998219849985CE
:105110005D60414941481C72DC601C745C829C7576
:105120009C611C77DC8383F822405C6283F8284012
:105130005C8583F82E404FF0000B8523C2E90144C3
:10514000D460948282F85443C2F810B0C2F850334D
:1051500063F02AF93249334863F026F908F5B0655F
:105160007EE000BFAFF30080000000000000000000
:1051700000093D000000000080841E0000000000C7
:105180000056001008480020E8470020ECEF08080F
:1051900000003444445101200C09090828F3002080
:1051A000807F002040020908087F00205C09090870
:1051B000341109083837012018370120F83601204A
:1051C00058020908245101206002090804510120F5
:1051D000680209088CB70708F03D00207002090832
:1051E00094B70708683E00207C090908B00909083F
:1051F000980209089CB70708E03E0020A4B70708FA
:10520000583F002024100120A0B400108C09090888
:10521000780209080000A0408002090848400020E8
:105220008C020908D03F0020C44F0120DC4F012030
:105230003409090820090908E88300206C110120BD
:1052400048090908340209085837012048020908AA
:105250005002090870090908B0410020CC0909086A
:1052600008F10C034FF0FF09C8F83C3008F11803AF
:10527000C8F8443008F14800C8E90CA8C8F8004054
:1052800088F80440A8F8064088F8084088F8099093
:1052900088F80A40C8F80C4088F81040A8F8124076
:1052A00088F8144088F8159088F81640C8F8184017
:1052B00088F81C40A8F81E4088F8204088F8219003
:1052C00088F82240C8F8244088F82840A8F82A40E6
:1052D00088F82C4088F82D9088F82E40C8F838A01F
:1052E000C8F840A063F076F808F1C00063F072F8E7
:1052F00008F1240388F83841C8F84C41C8F854B183
:1053000088F85841C8F85C41C8F85031C8E94F7472
:10531000C8E9514408F59E70314608F5B0783AF076
:105320008BFA45459CD1DFF804C4C94FC94ECA4D1C
:10533000CA4ACB49CB4BDFF8F8E3CCF800104FF06A
:105340007E58396031602960C749C2F81CE0C2E963
:105350000144D460C2F81080C2F81480C2F81880EA
:105360001160C24ADA61C3E90144DC60C3F810800D
:10537000C3F81480C3F818801960BD4BCCF8043012
:10538000BC4B7B60BC4B7360BC4B6B60C5E902449B
:10539000BB49BC4DBC48CCE90244C7E90244C6E95C
:1053A000024463F001F8B94EB949BA4862F0FCFF13
:1053B000B94B2E60B94EEC60C5E90144C5F81080C8
:1053C000C5F81480C5F81880EE61B54DB5481D606C
:1053D000B54DDC60C3E90144C3F81080C3F8148004
:1053E000C3F81880DD61B14B0360B14BB14DC460AF
:1053F0000021C0E90144C0F81080C0F81480C0F852
:105400001880CC22C5619FED8E8B1D46181D6CF057
:105410007EFD284663F01EF82B46A74AA748C5F82C
:10542000D0402A6083ED368B63F014F8A34A9A4B80
:10543000C2F8D0301346DFF8FCC2DFF8FCE2C3F854
:1054400000E09F4BCCF8B433C2F8D44082ED368BE9
:105450009C4B9D4ACCF800309C4B93609FED7A7B2F
:105460009B49D1608923CCF8A83302235161CCF841
:10547000B8330C7041F2883396499748946282EDB4
:10548000007B82ED0C7B82F82C4094638CF8AC435B
:105490001361FDF785FD9148914DFDF751FD914850
:1054A000FDF74EFD9048FDF74BFD9048DFF88CC2AC
:1054B0008F4ACCF80840CCE900CC4FF47F4300F58C
:1054C000805CEB618B4BCCF8640900F5405C02F129
:1054D0002800C2E90200106003F12800C3E90200BD
:1054E000186002F11800C2E9060002F12000C2E9CA
:1054F000080003F11800C3E9060003F12000C3E926
:10550000080002F1880014611475506003F18802EC
:1055100079491C611C755A60784BCCF8CC32784BB9
:10552000DFF81CE2C1F84433764B0B608423764AE3
:10553000C1F838330EF10C03C5E9054481F83C434A
:105540004FF01C0C2A606B634FF47F43AB64AB6677
:10555000C5F88830A5F80CC06C4B6D481B686B60B3
:105560004FF4397CA5F810C040F2FC5CA5F82CC0C3
:1055700040F2FE5CA5F830C0664BAB6005F1200C34
:10558000C5F850C0644BAB624FF4AE6CA5F858C080
:10559000624B6B654FF4BF6C4FF0010AA5F85CC01D
:1055A0005F4BC5F820E005F14C0CC5E91044C5E996
:1055B0000E44C5E91844C5E92044EA64EA6685F862
:1055C0000EA06D6285F82EA085F85AA0C5E91CC012
:1055D000C5F8D43040F22233A5F878304FF449733F
:1055E000A5F87C3005F16C03C5F8903040F29623A5
:1055F000A5F8983040F29523A5F89C3005F18C036E
:10560000C5F8B03040F27E73A5F8B83040F273634D
:10561000A5F8BC3005F1AC03C5F8D0304FF4507399
:10562000A5F8D8303F49404AC5F8941040F22B33D2
:105630004FF47F41C5F8B420A5F8DC3082E000BF0C
:1056400000000000000000F000000000000000006A
:10565000781001206810012058100120B810012096
:10566000D809090898100120E4090908A4020908CA
:10567000E458080804590808A8020908B4020908EF
:10568000C0020908EC100120C0400020A80A090847
:10569000C8020908384100206C500120CC020908DA
:1056A0009C0A09080C110120D0020908F41009080D
:1056B00010200020D4020908380A0908181F002009
:1056C00014820708800A0908F8360020D802090861
:1056D0003CD4001098020908004C0020B826002095
:1056E0001892002010270020682700205CB20020BC
:1056F000240A0120AC0A0120D84C0020C4CB002091
:10570000E4020908B40A090800100908049E0020F0
:1057100018030908F0020908FC020908080309082F
:1057200048030908300309083C03090888100120D0
:10573000A002090800B80010F009090838F3002099
:10574000D80F0908ED4AC5F8A81005F1CC03C5E942
:105750002844C5E93044C5E93844C5E94044C5F8A2
:105760008C20C5F8C810C5F8AC20C5F8E810C5F8FD
:10577000CC2085F87AA085F89AA085F8BAA085F89B
:10578000DAA0C5F80811C5F8F03040F28E23A5F86C
:10579000F830DB49C5F814114FF42473A5F8FC3038
:1057A0004FF47F4105F1EC030027C5F82811C5F837
:1057B00010314FF6007140F60273DFF878E3C5F858
:1057C000EC20C5F80C21A5F83411A5F81831602299
:1057D00040F60473394605F59C70C5E94844C5F8A0
:1057E000F4E0C5F82C4185F83041A5F8324185F840
:1057F0003641A5F81C3185F8FAA085F81AA16CF09D
:1058000086FB4FF60071A5F8B641A5F8B81185F8EA
:10581000BA41C5F8BC4185F8C041A5F8C241A5F818
:10582000C41185F8C641C5F8C84185F8CC41A5F832
:10583000CE41A5F8D011C5F8984185F89C41A5F84E
:105840009E41A5F8A01185F8A241C5F8A44185F8AC
:10585000A841A5F8AA41A5F8AC1185F8AE41C5F854
:10586000B04185F8B44185F8419185F84D9185F8AE
:10587000599185F8659185F8719185F87D9185F844
:10588000899185F8959185F8D241C5E97A44C5E9B1
:105890008244C5E98A4405F58674C5F8D8414FF4B9
:1058A0006474A5F8E04140F29234A5F8E44140F276
:1058B0004E2305F5EA74A5F80432A5F82432C5F89C
:1058C000F841904BC5F8DC314FF41274A5F8004252
:1058D0008D4BC5F8FC3105F5FA74C5F818428B4BB1
:1058E0008B48864AC5F81C3240F22634A5F820427F
:1058F0008E46884BC5F8D4214FF47F4105F50574D9
:10590000C5F8F011C5F81012C5F8F421C5F8301229
:10591000C5F81422C5F85012C5F8342285F8E2A162
:1059200085F802A285F822A2C5E99277C5E98E40E2
:10593000C5F89C3240F29A23A5F840324FF4277301
:10594000A5F8443205F50D73C5F8583240F292239C
:10595000A5F860324FF42573A5F8643205F5157388
:10596000C5F878322823A5F880322A23A5F8843296
:1059700005F51D73C5F898324FF44F73A5F8A032A2
:105980006549664AC5F85C1240F23E33C5F87C2290
:105990004FF47F41594AA5F8A43205F5257385F8DF
:1059A00042A2C5F87012C5F8542285F862A2C5F863
:1059B0009012C5F8742285F882A2C5F8B012C5F815
:1059C000942285F8A2A2C5E99A77C5E9A277C5E92C
:1059D000AA77C5E9B277C5F8D012C5F8B83240F653
:1059E0008253A5F8C0324FF6FF73A5F8C432DFF832
:1059F00048C14B4BC5F8B422C5F8BCC285F8C27289
:105A0000C5F8D47285F8D872A5F8DA72A5F8DCE288
:105A1000A5F8E8E285F8DE72C5F8E07285F8E47270
:105A2000A5F8E67285F8EA72A846AB462E4605F55B
:105A30002D751D603B4BC6F8EC32C6F8FC7286F83B
:105A40000073A6F8027386F8047386F8059386F847
:105A5000067386F8F9A2C6E9BC7706F53B7039F003
:105A600087FE314B86F8F8921C36B342E2D1A3F59B
:105A7000A8750026FF2701242A4BC5F83C34C5F839
:105A80004C6485F85064A5F8526485F8546485F830
:105A9000557485F85664C5F84064C5F8446485F8C3
:105AA000494405F23C4039F063FE1F4B85F84874C9
:105AB0001C359D42E0D103F130011C48A1F5C073B3
:105AC0000022FF24C3F8A02583F8A425A3F8A62567
:105AD00083F8A82583F8A94583F8AA25C3F890255B
