:020000040800F2
:1000000000100020B5030008C90A0208F503000823
:1000100019040008F403000807040008AF030008EF
:10002000AF030008AF030008AF030008F9B00008F1
:10003000AF030008AF030008AF0300080DC20008BB
:10004000AF030008AF03000809C1000879C1000828
:10005000AF030008AF03000849E6030851E60308B0
:1000600059E6030861E6030869E6030879B6000863
:10007000A9B60008DDB6000811B7000845B70008AA
:1000800075B70008A9B700085DB5000899B5000864
:10009000B5B50008D1B50008EDB5000871E6030854
:1000A0002DB300084DB3000841B3000869B3000840
:1000B0006DB3000891B40008ADB4000849D7030837
:1000C000AF030008A9B900081DBB0008AF03000872
:1000D000AF030008AF030008AF030008AF03000838
:1000E00095E60308B9C10008AF03000845B300084E
:1000F0003DB5000849B3000859B50008DDB7000850
:10010000AF030008AF030008C9B40008AF0300083C
:10011000AF030008AF030008E5B40008AF03000810
:1001200011B8000841B8000875B80008A9B800085F
:10013000DDB80008AF030008AF03000809B60008E7
:1001400025B6000841B600085DB6000819BC0008D5
:100150000DB9000841B9000875B9000875B100086B
:10016000AF030008AF030008AF030008AF030008A7
:10017000AF030008AF030008AF030008AF03000897
:10018000AF030008AF030008AF030008AF03000887
:10019000AF030008AF030008AF030008AF03000877
:1001A000AF030008AF030008AF030008AF03000867
:1001B000AF030008AF030008AF030008AF03000857
:1001C000AF030008AF030008AF030008AF03000847
:1001D000AF030008AF030008AF030008AF03000837
:0801E000693C0008F9DC060887
:1001F00001F0FF01102A2BDB10F0070F08D010F8D8
:10020000013B013A8B422DD010F0070F42B3F6D1DB
:10021000F0B441EA012141EA014122F007047FF0F4
:1002200000070023F0E80256083C85EA010586EA4B
:10023000010685FA47F5A3FA87F586FA47F6A5FA87
:1002400087F68EB9EED1F0BC01F0FF0102F0070293
:1002500032B110F8013B013A83EA010313B1F8D13E
:100260000020704701387047002D06BF354603381F
:10027000073815F0010F07D1013015F4807F02BF58
:10028000013015F4C03F0130F0BC0138704700BFA9
:1002900072B6374880F30888364880F309883648B4
:1002A0003649086040F20000CCF200004EF634718E
:1002B000CEF200010860BFF34F8FBFF36F8F40F2A3
:1002C0000000C0F2F0004EF68851CEF20001086046
:1002D000BFF34F8FBFF36F8F4FF00000E1EE100AB6
:1002E0004EF63C71CEF200010860062080F31488BF
:1002F000BFF36F8F07F014FC1EF0AAFF4FF05530CC
:100300001F491B4A91423CBF41F8040BFAE71D49C3
:10031000184A91423CBF41F8040BFAE71A491B4ABC
:100320001B4B9A423EBF51F8040B42F8040BF8E70E
:1003300000201849184A91423CBF41F8040BFAE7E3
:1003400007F0F2FB3DF05EFE144C154DAC4203DAB3
:1003500054F8041B8847F9E76AF01AFC114C124D57
:10036000AC4203DA54F8041B8847F9E707F0DABB1C
:1003700000100020001600200000000808ED00E03A
:100380000000002000100020F0E408080016002003
:10039000841900208819002008680120E001000865
:1003A000E4010008E4010008E801000870E700F03B
:1003B00000F8FEE70A480B49026800608A4201D053
:1003C000FFF766FF08484FF48041016007484FF08F
:1003D000010101600648D0F800D0406800470000E5
:1003E000F0FF0120EFBEADDE44380240003801408E
:1003F0000000FF1F1EF0040F0CBFEFF30880EFF3A7
:10040000098020F065BB1EF0040F0CBFEFF30880DD
:10041000EFF3098020F0A4BB1EF0040F0CBFEFF334
:100420000880EFF3098020F0E7BB00BF81F00041B6
:1004300002E000BF83F0004330B54FEA41044FEAC9
:10044000430594EA050F08BF90EA020F1FBF54EA64
:10045000000C55EA020C7FEA645C7FEA655C00F000
:10046000E2804FEA5454D4EB5555B8BF6D420CDDD1
:100470002C4480EA020281EA030382EA000083EA54
:10048000010180EA020281EA0303362D88BF30BDF4
:1004900011F0004F4FEA01314FF4801C4CEA11314A
:1004A00002D0404261EB410113F0004F4FEA0333A9
:1004B0004CEA133302D0524263EB430394EA050F34
:1004C00000F0A780A4F10104D5F1200E0DDB02FAA3
:1004D0000EFC22FA05F2801841F1000103FA0EF237
:1004E000801843FA05F359410EE0A5F120050EF1FD
:1004F000200E012A03FA0EFC28BF4CF0020C43FA2E
:1005000005F3C01851EBE37101F0004507D54FF03A
:10051000000EDCF1000C7EEB00006EEB0101B1F58A
:10052000801F1BD3B1F5001F0CD349085FEA3000D0
:100530004FEA3C0C04F101044FEA445212F5800FDB
:1005400080F09A80BCF1004F08BF5FEA500C50F178
:10055000000041EB045141EA050130BD5FEA4C0C5B
:10056000404141EB0101013C28BFB1F5801FE9D2B8
:1005700091F0000F04BF01460020B1FA81F308BFDB
:100580002033A3F10B03B3F120020CDA0C3208DDA7
:1005900002F1140CC2F10C0201FA0CF021FA02F182
:1005A0000CE002F11402D8BFC2F1200C01FA02F1F2
:1005B00020FA0CFCDCBF41EA0C019040E41AA2BF17
:1005C00001EB0451294330BD6FEA04041F3C1CDADF
:1005D0000C340EDC04F11404C4F1200220FA04F0FF
:1005E00001FA02F340EA030021FA04F345EA0301A9
:1005F00030BDC4F10C04C4F1200220FA02F001FA6B
:1006000004F340EA0300294630BD21FA04F02946EC
:1006100030BD94F0000F83F4801306BF81F4801185
:100620000134013D4EE77FEA645C18BF7FEA655CF8
:1006300029D094EA050F08BF90EA020F05D054EACA
:10064000000C04BF1946104630BD91EA030F1EBFCF
:100650000021002030BD5FEA545C05D140004941D3
:1006600028BF41F0004130BD14F580043CBF01F5C6
:10067000801130BD01F0004545F0FE4141F47001AC
:100680004FF0000030BD7FEA645C1ABF1946104687
:100690007FEA655C1CBF0B46024650EA013406BF88
:1006A00052EA033591EA030F41F4002130BD00BF47
:1006B00090F0000F04BF0021704730B54FF4806404
:1006C00004F132044FF000054FF0000150E700BF85
:1006D00090F0000F04BF0021704730B54FF48064E4
:1006E00004F1320410F0004548BF40424FF00001D1
:1006F0003EE700BF42004FEAE2014FEA31014FEA14
:1007000002701FBF12F07F4393F07F4F81F0605162
:10071000704732F07F4208BF704793F07F4F04BFAD
:1007200041F40021704730B54FF4607401F000458A
:1007300021F000411CE700BF50EA010208BF7047EA
:1007400030B54FF000050AE050EA010208BF7047DB
:1007500030B511F0004502D5404261EB41014FF444
:10076000806404F132045FEA915C3FF4D8AE4FF04C
:1007700003025FEADC0C18BF03325FEADC0C18BF2F
:10078000033202EBDC02C2F1200300FA03FC20FA80
:1007900002F001FA03FE40EA0E0021FA02F11444CD
:1007A000BDE600BF70B54FF0FF0C4CF4E06C1CEAE6
:1007B00011541DBF1CEA135594EA0C0F95EA0C0F57
:1007C00000F0DEF82C4481EA030621EA4C5123EACA
:1007D0004C5350EA013518BF52EA033541F48011F9
:1007E00043F4801338D0A0FB02CE4FF00005E1FBAC
:1007F00002E506F00042E0FB03E54FF00006E1FBF6
:1008000003569CF0000F18BF4EF0010EA4F1FF0438
:10081000B6F5007F64F5407404D25FEA4E0E6D4178
:1008200046EB060642EAC62141EA55514FEAC52089
:1008300040EA5E504FEACE2EB4F1FD0C88BFBCF505
:10084000E06F1ED8BEF1004F08BF5FEA500E50F1B6
:10085000000041EB045170BD06F0004646EA01017C
:1008600040EA020081EA0301B4EB5C04C2BFD4EBAE
:100870000C0541EA045170BD41F480114FF0000EA7
:10088000013C00F3AB8014F1360FDEBF002001F015
:10089000004170BDC4F10004203C35DA0C341BDC8F
:1008A00004F11404C4F1200500FA05F320FA04F061
:1008B00001FA05F240EA020001F0004221F0004195
:1008C00010EBD37021FA04F642EB06015EEA430E08
:1008D00008BF20EAD37070BDC4F10C04C4F1200538
:1008E00000FA04F320FA05F001FA04F240EA0200EB
:1008F00001F0004110EBD37041F100015EEA430EBC
:1009000008BF20EAD37070BDC4F1200500FA05F2DB
:100910004EEA020E20FA04F301FA05F243EA02035A
:1009200021FA04F001F0004121FA04F220EA020069
:1009300000EBD3705EEA430E08BF20EAD37070BDAF
:1009400094F0000F0FD101F00046400041EB01018F
:1009500011F4801F08BF013CF7D041EA060195F071
:10096000000F18BF704703F00046520043EB03032B
:1009700013F4801F08BF013DF7D043EA0603704718
:1009800094EA0C0F0CEA135518BF95EA0C0F0CD023
:1009900050EA410618BF52EA4306D1D181EA030169
:1009A00001F000414FF0000070BD50EA410606BF63
:1009B0001046194652EA430619D094EA0C0F02D1A8
:1009C00050EA013613D195EA0C0F05D152EA0336ED
:1009D0001CBF104619460AD181EA030101F000410B
:1009E00041F0FE4141F470014FF0000070BD41F054
:1009F000FE4141F4780170BD70B54FF0FF0C4CF42E
:100A0000E06C1CEA11541DBF1CEA135594EA0C0F4C
:100A100095EA0C0F00F0A7F8A4EB050481EA030E99
:100A200052EA03354FEA013100F088804FEA033380
:100A30004FF0805545EA131343EA12634FEA02224E
:100A400045EA111545EA10654FEA00260EF000410F
:100A50009D4208BF964244F1FD0404F5407402D261
:100A60005B084FEA3202B61A65EB03055B084FEAF2
:100A700032024FF480104FF4002CB6EB020E75EBEF
:100A8000030E22BFB61A754640EA0C005B084FEA17
:100A90003202B6EB020E75EB030E22BFB61A754694
:100AA00040EA5C005B084FEA3202B6EB020E75EBDF
:100AB000030E22BFB61A754640EA9C005B084FEA57
:100AC0003202B6EB020E75EB030E22BFB61A754664
:100AD00040EADC0055EA060E18D04FEA051545EA53
:100AE00016754FEA06164FEAC30343EA52734FEAFC
:100AF000C2025FEA1C1CC0D111F4801F0BD141EA75
:100B000000014FF000004FF0004CB6E711F4801FD9
:100B100004BF01430020B4F1FD0C88BFBCF5E06FB9
:100B20003FF6AFAEB5EB030C04BFB6EB020C5FEAC9
:100B3000500C50F1000041EB045170BD0EF0004E1E
:100B40004EEA113114EB5C04C2BFD4EB0C0541EA50
:100B5000045170BD41F480114FF0000E013C90E64D
:100B600045EA060E8DE60CEA135594EA0C0F08BF11
:100B700095EA0C0F3FF43BAF94EA0C0F0AD150EA10
:100B800001347FF434AF95EA0C0F7FF425AF1046A3
:100B900019462CE795EA0C0F06D152EA03353FF4CB
:100BA000FDAE1046194622E750EA410618BF52EA48
:100BB00043067FF4C5AE50EA41047FF40DAF52EA1C
:100BC00043057FF4EBAE12E74FF0FF3C06E000BFB9
:100BD0004FF0010C02E000BF4FF0010C4DF804CDC6
:100BE0004FEA410C7FEA6C5C4FEA430C18BF7FEA86
:100BF0006C5C1BD001B050EA410C0CBF52EA430CB4
:100C000091EA030F02BF90EA020F0020704710F133
:100C1000000F91EA030F58BF994208BF90422CBFC2
:100C2000D8176FEAE37040F0010070474FEA410CBB
:100C30007FEA6C5C02D150EA013C07D14FEA430CD9
:100C40007FEA6C5CD6D152EA033CD3D05DF8040B4A
:100C5000704700BF8446104662468C46194663467C
:100C600000E000BF01B5FFF7B7FF002848BF10F153
:100C7000000F01BD4DF808EDFFF7F4FF0CBF012098
:100C800000205DF808FB00BF4DF808EDFFF7EAFF14
:100C900034BF012000205DF808FB00BF4DF808EDCF
:100CA000FFF7E0FF94BF012000205DF808FB00BFC4
:100CB0004DF808EDFFF7CEFF94BF012000205DF84E
:100CC00008FB00BF4DF808EDFFF7C4FF34BF01205B
:100CD00000205DF808FB00BF4FEA410C7FEA6C5C26
:100CE00002D150EA013C0AD14FEA430C7FEA6C5C26
:100CF00002D152EA033C02D14FF0000070474FF09E
:100D0000010070474FEA410212F5001215D211D5C9
:100D10006FF47873B3EB625212D94FEAC12343F0F8
:100D2000004343EA505311F0004F23FA02F018BF7A
:100D3000404270474FF00000704750EA013005D143
:100D400011F0004008BF6FF0004070474FF0000006
:100D5000704700BF4FEA4102B2F1E04324BFB3F550
:100D6000001CDCF1FE5C0DD901F0004C4FEAC00222
:100D70004CEA5070B2F1004F40EB830008BF20F006
:100D80000100704711F0804F21D113F13872BCBFC0
:100D900001F00040704741F480114FEA5252C2F115
:100DA0001802C2F1200C10FA0CF320FA02F018BF5E
:100DB00040F001004FEAC1234FEAD32303FA0CFCB1
:100DC00040EA0C0023FA02F34FEA4303CCE77FEA40
:100DD000625307D150EA01331EBF4FF0FE4040F48A
:100DE0004000704701F0004040F0FE4040F4000039
:100DF000704700BF80F0004002E000BF81F000417A
:100E000042001FBF5FEA410392EA030F7FEA226CB0
:100E10007FEA236C6AD04FEA1262D2EB1363C1BF40
:100E2000D218414048404140B8BF5B42192B88BFAF
:100E3000704710F0004F40F4000020F07F4018BFD2
:100E4000404211F0004F41F4000121F07F4118BFF2
:100E5000494292EA030F3FD0A2F1010241FA03FC9A
:100E600010EB0C00C3F1200301FA03F100F0004382
:100E700002D5494260EB4000B0F5000F13D3B0F14A
:100E8000807F06D340084FEA310102F10102FE2AB9
:100E900051D2B1F1004F40EBC25008BF20F0010029
:100EA00040EA03007047490040EB0000013A28BFC8
:100EB000B0F5000FEDD2B0FA80FCACF1080CB2EB4B
:100EC0000C0200FA0CF0AABF00EBC25052421843C9
:100ED000BCBFD0401843704792F0000F81F400016E
:100EE00006BF80F400000132013BB5E74FEA410341
:100EF0007FEA226C18BF7FEA236C21D092EA030FAD
:100F000004D092F0000F08BF0846704790EA010F26
:100F10001CBF0020704712F07F4F04D1400028BF53
:100F200040F00040704712F100723CBF00F5000035
:100F3000704700F0004343F0FE4040F4000070476B
:100F40007FEA226216BF08467FEA23630146420217
:100F500006BF5FEA412390EA010F40F4800070472A
:100F60004FF0000304E000BF10F0004348BF4042D0
:100F70005FEA000C08BF704743F0964301464FF00C
:100F800000001CE050EA010208BF70474FF0000368
:100F90000AE000BF50EA010208BF704711F00043A9
:100FA00002D5404261EB41015FEA010C02BF844679
:100FB0000146002043F0B64308BFA3F18053A3F5D8
:100FC0000003BCFA8CF2083AA3EBC25310DB01FA1F
:100FD00002FC634400FA02FCC2F12002BCF1004FA3
:100FE00020FA02F243EB020008BF20F00100704734
:100FF00002F1200201FA02FCC2F1200250EA4C0088
:1010000021FA02F243EB020008BF20EADC707047CD
:101010007BB972B90029BEBF00204FF0004106E045
:1010200008BF00281CBF6FF000414FF0FF3000F0F8
:1010300057B8ADF1080C6DE904CE002909DB002B8F
:101040001ADB70F05FF8DDF804E0DDE9022304B09C
:101050007047404261EB4101002B1BDB70F052F8FE
:10106000DDF804E0DDE9022304B0404261EB410118
:10107000524263EB43037047524263EB430370F009
:1010800041F8DDF804E0DDE9022304B0404261EB01
:1010900041017047524263EB430370F033F8DDF8CF
:1010A00004E0DDE9022304B0524263EB43037047DE
:1010B00053B94AB9002908BF00281CBF4FF0FF31BF
:1010C0004FF0FF3000F00CB8ADF1080C6DE904CE24
:1010D00070F018F8DDF804E0DDE9022304B0704791
:1010E000704700BF4A0011D212F5001211D20DD57F
:1010F0006FF47873B3EB62520ED44FEAC12343F01E
:10110000004343EA505323FA02F070474FF00000C7
:10111000704750EA013002D14FF0FF3070474FF076
:1011200000007047EC46A0E8F05F80EC108B4FF0B9
:1011300000007047B0E8F05FE54690EC108B0800C7
:1011400008BF0120704700BF00F1340191E838006A
:101150009C46A6464CF8045D90E8FF0FE54600BDAE
:1011600090EC210B704700BF80EC210B704700BF53
:1011700090EC200B704700BF80EC200B704700BF45
:10118000D0EC200B704700BFC0EC200B704700BFB5
:10119000F0EC0201F0EC0211F0EC0221F0EC023173
:1011A000F0EC0241F0EC0251F0EC0261F0EC027163
:1011B000F0EC0281F0EC0291F0EC02A1F0EC02B153
:1011C000F0EC02C1F0EC02D1F0EC02E1F0EC02F143
:1011D000704700BFE0EC0201E0EC0211E0EC0221FC
:1011E000E0EC0231E0EC0241E0EC0251E0EC0261A3
:1011F000E0EC0271E0EC0281E0EC0291E0EC02A193
:10120000E0EC02B1E0EC02C1E0EC02D1E0EC02E182
:10121000E0EC02F1704700BFB0FC0181B0FC01912D
:10122000B0FC01A1B0FC01B1704700BFA0FC01817E
:10123000A0FC0191A0FC01A1A0FC01B1704700BF7E
:10124000EC4600B52DE900502DE9FF1F4FF00003DB
:101250002DE90C0001A971F0CBFFDDF840E012B0E0
:10126000704700BFEC4600B52DE900502DE9FF1F87
:101270004FF000032DE90C0001A971F0F7FFDDF834
:1012800040E012B0704700BFEC4600B52DE90050B9
:101290002DE9FF1F4FF000032DE90C0001A972F0AA
:1012A00007F8DDF840E012B0704700BFEC4600B52B
:1012B0002DE900502DE9FF1F4FF000032DE90C0030
:1012C00001AB71F0CBFFDDF840E012B0704700BF1A
:1012D000EC4600B52DE900502DE9FF1F4FF000034B
:1012E0002DE90C0001AA72F03FF8DDF840E012B0E1
:1012F000704700BF2DE9F04F2DED108AC1F80CD0DA
:10130000C3689D46BDEC108ABDE8F08F06F042FD33
:10131000002383F311882846A047002007F0F8FD3A
:10132000FEE706F0D5FE07F029FD06F033FD00DFED
:10133000FEE710F8012B11F8013B012A28BF9A4261
:10134000F7D0D01A7047034613F8012B002AFBD1BF
:10135000181A01387047000070B586B00C46114667
:101360001A46114B0093054674B1631ECDE9010383
:1013700000266846CDE903660AF08AFF039BA34274
:1013800000D2EE5406B070BD9FED057B019068461B
:101390008DED027B04940AF07BFF06B070BD00BFA8
:1013A0000000000000000000644607080000000084
:1013B0002DE9F04759EC108B414B0022404649463D
:1013C000FFF776FCA8B33AA7D7E900673C4D4FF08A
:1013D000000A002410E032463B4640464946FFF7EB
:1013E0000BFB8046894622462B46404649460AF179
:1013F000050AFFF75DFCC8B132463B464046494608
:10140000FFF756FC0028E6D122462B4640464946C7
:10141000FFF7F2FA8046894622462B464046494667
:101420000AF1010AFFF744FC0028E5D15046BDE867
:10143000F0878246234B002240464946FFF724FCB2
:1014400088B31DA5D5E900451D4F002622462B4631
:1014500040464946FFF718FC90B115A3D3E9002395
:1014600040464946FFF79EF98046894622462B466C
:1014700040464946AAF1050AFFF706FC0028ECD1D0
:1014800032463B4640464946FFF78CF90D4B002259
:10149000804689460AF1FF3AFFF7F6FB0028D5D1CE
:1014A0005046BDE8F0878246C0E700BFAFF300803A
:1014B00000000000006AF84000000080B5F8E43E3B
:1014C000000024400000F03F2DE9F047B0F1000A91
:1014D0002D4D4FF0000426DD29A7D7E90067DFF87E
:1014E000AC904FF00008BAF1040F32463B4620465C
:1014F00029460CDDFFF756F9AAF1050A04460D4608
:10150000BAF1000FEFD145EC104BBDE8F087424631
:101510004B46FFF747F90AF1FF3A04460D46BAF188
:10152000000FE0D1EFE7EED015A7D7E900671AF179
:10153000040FDFF858904FF0000832463B46204633
:1015400029460FDAFFF758FA0AF1050A04460D4654
:10155000BAF1000FD7D01AF1040F32463B462046AD
:101560002946EFDB42464B46FFF746FA0AF1010AED
:1015700004460D46BAF1000FEDD1C4E7AFF3008089
:1015800000000000006AF8400000F03F0000244026
:1015900070B5C66984B0044630460D4612F0D2FCE0
:1015A000204613F097FD204614F022F89FED087BAB
:1015B00003462946304607246A468DED027B8DF8A6
:1015C0000040019312F04AFD04B070BDAFF30080FB
:1015D000FFFFFFFFFFFFFFFF2DE9F04FC768C66960
:1015E000D0F804802DED028B282F87B004460D46DD
:1015F00072D040F223139F4240F0858014F01AFB12
:101600009FED438B4FF0070A4FF00809E3683A2B30
:1016100015D045DD5B2B51D05A2B4ADD7B2B02D0F8
:10162000B3F5927F45D12946304612F04BFC424635
:101630002946204616F03CFBE3683A2BE9D12046C8
:1016400013F048FD204613F0D3FF2946039030469F
:101650008DED048B8DF808A012F052FC2B78D5F894
:1016600004B0082B4AD096F834706F6002213046DF
:1016700085F8009012F006FCBA1C02A986F8342006
:101680005B4600913A461421304612F075FC9DF8F5
:101690000830082BCBD1039930460EF073FEC6E715
:1016A000282BC0D02E2B04D129462046FFF770FFEF
:1016B000ACE707B0BDEC028BBDE8F08F29463046A1
:1016C00012F040FC02A9204616F09AF902AA294617
:1016D000304612F0C3FC99E713F0FCFC29460022C7
:1016E000204615F003FC204643463A46292113F0D4
:1016F00015FFE069294611F037FA81E7594630466F
:101700000EF040FEAFE7044912F0E6FAAFF30080B6
:10171000FFFFFFFFFFFFFFFFB4F00708000000001E
:1017200030B5012285B00C21044611F097FCD8B1E8
:101730009FED117B0246124B043280ED017B02606B
:101740000FCB8DE80F000F4B0F491A6820460EF0A3
:1017500097FD0022694620461CF0CEFE20466AF026
:101760001BFF012005B030BD20460EF035FD0120E5
:1017700005B030BDAFF3008000000000000000F0B5
:1017800060420708CCAE0020D8B9F0FF000000008E
:101790002DE9F04F2DED048B036897B0DB68984777
:1017A000002800F01E8503689D4ADB6893420546C9
:1017B00040F0138505F10C03049305F10D03069326
:1017C00005F58563079305F11303089305F10F03EE
:1017D0000993944BDFF87C82D8689FED939A3CF094
:1017E0002FFB7F289FED8C8B05F5A56B40F3E180E7
:1017F0002B6828461B6998478246002800F01D8503
:10180000D8F81C300133C8F81C302B6801225C6802
:101810000DF12E014FF47A732846A047012840F0BD
:101820006B839DF82E30542B0ED8452B0FD9463B99
:101830000E2B0CD8DFE803F0D00B0B0B0B0B0B0BB4
:101840000B0B0BC40BC4CC00742B00F0C1802B68B5
:1018500001225C680DF12F010A232846A0470128C8
:1018600040F0E1849DF82E309DF82F4044EA032497
:10187000264695F8303524B206F10409002E00F012
:10188000388340F21E41894500F3338329684F684D
:10189000002B00F004834FF47A7304994A462846DB
:1018A000B8472B7B0593814540F0E384059834F0DD
:1018B00061FD8146002800F0FF8404980359224608
:1018C00000211CBA5FF0D4FA844240F0198301234E
:1018D000022E2C7B85F8303540F3FC82042EB5F8BF
:1018E0000D2040F3FA82B5F80F30A4F138013C29FD
:1018F0003ED8DFE811F02002CD013D003D003D0063
:101900003D003D003D003D001802BD0175013D0058
:101910004D013D0007013D003D003D003D00FC0044
:101920003D003D00BF023D003D009102C9026D0037
:101930003D003A023D003D003D0083023D003D0078
:101940003D003D0050023D003D00F6003D003D00E1
:10195000E5003D003D003D003D003D00B10083003D
:101960003D003D003D003D003D003D003D006D005F
:10197000832128466BF07AFA50212C4A2C48009497
:1019800023460AF005FF2A49D5F82C056BF05CFACE
:10199000059A284811463DF0B7F94FF0000A264B4A
:1019A00083F800A01F4BD8683CF04AFA7F283FF725
:1019B0001FAF224A224941F6F4204FF0ABFBECE77F
:1019C00020483DF0A1F90021284661F011FFE6E72B
:1019D000284635F0BFFEE2E71B4AD5F82C151B4818
:1019E0003DF092F92A681A49146800230322284618
:1019F000A0472B6828469B689847D0E76B7B022B53
:101A000000F00E84032B00F0F783012BC0D15DF0B2
:101A100015FB69E3AFF300808189BA8600000000FE
:101A200099C00108281A0020002474499C1908084C
:101A300020F70020C8190808BC670120B415080861
:101A400028060808C4150808E4150808D40C080876
:101A5000F4150808E8F70020D8F81430B5F80D4060
:101A6000B5F80F60B5F811700133C8F814303A4674
:101A70002B463146204635F019FE8146002840F0BD
:101A8000028332462146284635F0F0FD002800F05A
:101A90002B823A4649465FF0EBF900BA0E900EAA47
:101AA0002846CDF80090042301213AF0C5FB0E989A
:101AB00000903B46BB48324621463DF025F96EE793
:101AC000B94B1B78002B00F0DC82B84C2046FFF7A6
:101AD0003AFC012103462246009128463AF0ACFB2D
:101AE0005DE7B34940F25E204FF014FB57E7002357
:101AF00000938DF8383001230EAA194628463AF093
:101B00009BFB4CE7D8F820300133C8F82030A94BB4
:101B10009A6AA94BD3F858359A4280F024823CF057
:101B200029FDA44AD2E90C3253EA020440F00082B3
:101B3000A248B0EE490A3FF083F8002840F027821F
:101B40009F4EA04808F0B0FB9F4933680A68326096
:101B500003F5805200240B60C2F8643999481C7068
:101B600008F038FC376807F580533846D3F86469C5
:101B7000FFF7E9FBF61B864240F0648329680120E9
:101B800000908C6933463A4600212846A04706E774
:101B9000069C2644002306F8013C6B7B202B03D1D6
:101BA00014F8013F202BFBD02046FFF7CCFB60B19F
:101BB000431E23440020C4F1010102E0D9425870C1
:101BC00003D013F80129202AF8D0804B20461B6847
:101BD000984700231A46194628463AF0C1FADEE62D
:101BE000D8F81830B5F80D40B5F80F60B5F8117099
:101BF00077480133C8F81830D8F8043000933246DB
:101C00003B4621463DF080F82B463A463146204679
:101C100035F04CFD002840F06281324621462846CE
:101C200035F024FD8146002800F05E81002C40F054
:101C30005782614BB3F86A3C002B40F02D839FED37
:101C4000650A65483EF0FCFF0146002800F0088365
:101C5000F319B3F5824F05DBB6F5864F02DC5F481A
:101C60003CF00EFE08993A46484672F0AAF83BE26C
:101C7000B5F80D30002B00F00D82B3F5807F40F0F9
:101C8000338100231A46042128463AF069FA86E691
:101C9000D8F80C3007990133C8F80C300E460022F2
:101CA000012031F8023F5B0B03F1FF3418BF00FA4B
:101CB00004F38B451A44F4D10021284635F09CFBEF
:101CC0004FF001090746CDF814A036F8024FC4F3CF
:101CD0000C03640B04F1FF340EA809FA04F416D0C7
:101CE0003F4A0C922B220D920CAA06CA00945FF078
:101CF00023FB29680023D1F800A022460EA928461C
:101D0000D047394622460EA85FF0B2F80746B345E1
:101D1000DBD12B68DDF814A01C683FBA0E970123B5
:101D200004220EA963E62F4840F2EC7300222946F4
:101D300035F08CFD33E62C4B1B78002B00F0A7818F
:101D400000205DF005FA0446002800F0CD80D0F8B0
:101D5000E4340121024603EB8303284600913AF064
:101D60006BFA20465DF022FA19E6204B204A0093D8
:101D70002021204B8DED028B0EA80AF009FD0EA844
:101D8000FFF7E1FA0022431C009201210EAA284627
:101D90003AF052FA03E6184940F25E204FF0BAF9E1
:101DA000FDE500BFA8180808BD67012070F70020F6
:101DB00074190808382D00208855001010160020CE
:101DC000EC16002010F70020F01600200CF7002081
:101DD000A4170808002474493821001008160020B0
:101DE000682E0020F4160020BB670120BD003501DD
:101DF0004C1708084417080858190808B5F80F10B8
:101E0000B5F80D0049BA40BA89B280B259F08EFBDC
:101E100028463AF031FAC2E5D8F80830B5F80D4056
:101E2000B5F80F70B5F81160BA480133C8F808303A
:101E30003A46334621463CF067FF2B463246394648
:101E4000204635F033FC002840F01F813A462146F9
:101E5000284635F00BFC0746002C00F04981002F86
:101E600042D00021009133463A46012128463AF0FB
:101E7000E3F994E540F2EC71012E08BF0B46A64849
:101E8000294635F0E3FC8AE5D5F82C15A34AA44889
:101E90003CF03AFF0121284661F0AAFC7FE50246AA
:101EA0000A2304992846B8472B7B0593184634F03B
:101EB00061FA00283FF471AD2B6806995B68E21C5B
:101EC0001F4628464FF47A739146B84781453FF440
:101ED000F4AC62E50022134607E5002305E59149CD
:101EE000D5F82C056AF0B0FF842128466AF0BEFFC1
:101EF00055E5002B40F05481002385F830354CE542
:101F000095F83035002B3FF448AD23460246297B37
:101F100085483CF0F9FE8549D5F82C056AF094FF18
:101F2000822128466AF0A2FF002385F8303534E587
:101F3000C31A61EB02010A1E02DA033342F1000206
:101F40007B497C48D1F8581500FB01F17A489B0881
:101F5000A0FB010143EA8273090992100020994213
:101F60009041BFF6E5AD754975483CF099FE754B5B
:101F700093F84032002B40F03B8101F075FD724830
:101F8000B0EE490A3EF05CFE00283FF4D9AD6E4841
:101F90003CF076FC664B1B89692B96BF6B4A00248C
:101FA00052F823403CF00CFD694B6A496A4ACDE97E
:101FB00000406A483CF0A8FE5D4BB3F8E8120129E6
:101FC00002D967485EF038FF594BB3F8EA1201298D
:101FD00002D964485EF030FF634C644E36F8021F4D
:101FE0000129234604F1040402D918685EF024FF95
:101FF0005F4BA342F2D14E4BD3F8C0310C2B1A46A3
:10200000A8BF0C22002B7FF79BAD5A4F05955A4C69
:1020100000263D4691462DE0618B012901D95EF0F5
:102020000BFFD7F81007002800F0D480B4F8FE1397
:10203000012901D95EF000FFD5F8F002002800F078
:10204000C68034F8021F012901D95EF0F5FED5F8EB
:102050004004002800F0B880B4F8441B012901D9DD
:102060005EF0EAFE01364E4507F1200705F11C053A
:1020700080F2BC80D7F890050028CDD1D7F8940520
:10208000CAE73E4C22E53E492AE73E4928E75CF094
:10209000D5FF55E60EA83CF0F3FBD8F810303A48CF
:1020A0000133C8F810303CF02FFE53F081FF9FED54
:1020B000370A37483EF0C4FD002840F0CC800EA817
:1020C0003CF026FCDFED337A60EE277A17EE900ABB
:1020D000FEF710FB02460B462F483CF015FED0E5FC
:1020E00008993A4671F06DFE28463AF0C5F856E474
:1020F0000F4BB3F86A3C002B3FF4B1AE274940F2D6
:102100005E204FF007F8099821463246074671F0E5
:102110002EFEA6E60C190808F41600203017080851
:10212000D40C0808E8170808E41608081C17080863
:102130008855001040420F00CDCCCCCCB4310808FB
:10214000402D00200050001010160020585707089E
:1021500058170808BD0035018189BA866417080838
:10216000DCC00808E4C0080848570708CA57001030
:1021700058570708DCA300201258001094F60020DE
:102180009018080840190808E41808080024744941
:102190003821001000007A44F418080800180808D4
:1021A0003246D5F82C154A483CF0AEFD4949D5F8E1
:1021B0002C056AF049FE842128466AF057FE002368
:1021C00085F83035FFF7E9BBD5F8440444E7D5F886
:1021D000F40236E7D7F8140728E7984700287FF479
:1021E000E9AA17B0BDEC048BBDE8F08F059DA7E40C
:1021F00039483EF0F9FAC0E600205CF0A9FF044639
:10220000002854D0D0F8E4340121024603EB8303C4
:10221000284600913AF010F820465CF0C7FF63E7CB
:102220005CF06CFF60E72D49D5F82C056AF00CFED8
:10223000002385F83035FFF7B0BB0A2006F092FE88
:10224000FFF7ABBB03462649324641F686104EF0F7
:1022500061FF274692E433F0A5FB53F00FFC2EE715
:10226000D8F8040000903B461E4832463CF04CFD36
:102270003AE74A4601461C483CF046FD1B49D5F862
:102280002C056AF0E1FD802128466AF0EFFD00236D
:1022900085F83035FFF781BB154940F25E204EF0DE
:1022A00039FF832128466AF0E1FDFFF778BB8421DE
:1022B00028466AF0DBFD17E705990E483CF024FD3F
:1022C000832128466AF0D2FD85F83095FFF765BB7B
:1022D0001416080844160808402D0020F8150808B0
:1022E000841708084018080864160808A416080887
:1022F00000180808C8160808914B92499248DFF860
:10230000D0C22DE9F04F914C5C62914C1C639FED63
:10231000805B904CDC63904C9C64904C5C6583EDDE
:102320000A5B8F4C1C669FED7C5B8E4C1960002213
:102330004FF45871DC668C4C9C679FED797B9FED68
:102340007A6BC3E9012183ED105B8849884CD96021
:102350009FED775B8749C3F88440874C99611026CD
:1023600004214FF038094FF00C0EC3F89040834C15
:102370009963C3F8801083ED046BC3E9072983EDEB
:102380001C7B5A63DA645A66DA67C3F894209E6647
:10239000C3F850E083ED165BC3F89C40784CC3F85B
:1023A000A8400124C3F8C440764CC3F8CC40764C16
:1023B000C3F8D840754CC3F8E440754CC3F8F040FE
:1023C0003024C3F8F840734C734DC3F8FC4002242A
:1023D000C3F82441C3F8B450C3F8C0500024042506
:1023E000C3E934459FED545B00249425C3E93A4585
:1023F00000244825C3E940454FF024084FF0080A5F
:10240000012424254FF01C0BC3E92B21C3E93721FC
:10241000C3E94202C3E94480C3E94A80C3F820010A
:1024200083ED225B83ED287B83ED2E7BC3F898B090
:10243000C3F8C8A0C3F8F420C3E94645C3F838017F
:102440005648C3F844015648C3F850015548C3F8EC
:102450005C015548C3F868015448C3F874015448F6
:10246000C3F8B0015348C3F8BC015348534FC3F8F5
:10247000C801C3E95B21C3F83C11C3F8D0110120A6
:10248000382103242425C3E94C4583ED5E6B83ED9D
:10249000527B83ED587B83ED707BC3E96726C3F8DD
:1024A0004081C3F858A1C3F88891C3F8B8E1C3F8D4
:1024B0005421C3F880C1C3F88CC1C3F88421C3F888
:1024C0009871C3F8A471C3F8B421C3F8CC21C3E94F
:1024D000640101201021C3E96A013949C3F8D4110C
:1024E0003849C3F8E0113849C3F8F8113749C3F83F
:1024F000EC110020202183ED767BC3E97926C3E926
:102500007C01C3E97F26BDE8F08F00BFAFF30080F8
:10251000000000006C00000000000000100000003F
:10252000000000000800000000000000340000006F
:10253000000000002C000000000000000C00000063
:10254000682E0020A961030859620308B1610308DD
:1025500031620308B9610308D5620308BD6103084D
:10256000DD610308C5610308CD610308F561030857
:10257000D5610308C1620308E5610308ED61030842
:1025800041620308196203082162030829620308F3
:102590003962030851620308FD610308A962030858
:1025A000B1620308CD620308F1620308B96203084F
:1025B00049620308C96203089562030835CD05081E
:1025C000DD620308E5620308E96203086169030844
:1025D000CDBF04080000000010B590F8E03090F87E
:1025E000DC2083F0010363F3000280F8DC2000218B
:1025F0004FF48C62124871F0BAFB114B4FF4F07239
:10260000002103F2644071F0B2FB0E4B9FED0A7B98
:1026100003F5045203F5005382ED027B03F63440C8
:1026200003F6384200210024C3F8F0450160116030
:1026300010BD00BFAFF3008000000000000000F0FC
:1026400090210010000000109FED116BD0ED0F7A6B
:1026500080ED030AB5EEC00A0123F1EE10FA80ED19
:10266000066BC0ED097A80ED0F0A03720BD9DFED1E
:102670000A6A86EE807AF5EE407AF1EE10FA80ED85
:102680000A7A03D07047054B8362704761F04CBEF5
:102690000000000000000000ABC222480000C07F24
:1026A0002DE9F04F2DED048BCC4B89B0D8683BF071
:1026B000C7FB402840F337854DF0E8F8002801F0CB
:1026C0008F80C74C94F84830002B40F0AB86C54D46
:1026D000C5483EF007FB6B894FF47A7202FB03F3A7
:1026E00007EE903AF8EEE77AB4EEE70AF1EE10FA68
:1026F00040F1DF82BD4B029303F5804A03F580561B
:102700003BF038FF95EDFE0AB5EE400AF1EE10FA07
:102710008046894605D0B6483EF0DCFA002840F0F5
:102720002283B449DFEDB46AB1F8C8009FEDB37AF3
:1027300006EE100AB8EE466AF2EE045AC6EE867A43
:1027400001F5095151E9020142464B4667EEA57A6F
:10275000F4EEE67AF1EE10FA58BFF0EE667AF4EE97
:10276000C77AF1EE10FA54BFB0EE678AB0EE478A2E
:102770006AF030F9B4EEC80AF1EE10FA04D496F813
:102780004C3E002B00F0EF829D484AF051F80028A3
:1027900040F0F5829B4835F033F99B4835F030F92D
:1027A0009A4835F02DF995F856259006C2F3401356
:1027B00040F12E8601219AF8C422954863F3C302A2
:1027C0008AF8C42200223BF07BFD032106A835F0E5
:1027D0002BF99DF81830002B00F0AF849DED077A9F
:1027E000B5F9D4308B4807EE903AF8EEE77A00223C
:1027F000F4EEC77AF1EE10FACCBF012111463BF09E
:102800005FFD3CF0CFF895F857351907804600F189
:10281000AE85DFF818929AF86032C9F80080002B74
:1028200042D194F85438DA073ED43BF0A3FE95ED3C
:10283000FE0AB5EE400AF1EE10FA8046894640F0F5
:1028400013866C49DFED6C6AB1F8C8009FED6B7AB6
:1028500006EE100AB8EE466AF2EE045AC6EE867A22
:1028600001F5095151E9020142464B4667EEA57A4E
:10287000F4EEE67AF1EE10FA58BFF0EE667AF4EE76
:10288000C77AF1EE10FA54BFB0EE678AB0EE478A0D
:102890006AF0A0F8B4EEC80AF1EE10FA04D496F883
:1028A0004C3E002B00F0E68535F076F89AF8C532FC
:1028B00060F300038AF8C532B5F82C8340463AF03D
:1028C000E7FE002840F07C859AF8A01201F0010193
:1028D00051483BF065FC35F079F801464F483BF034
:1028E0005FFCB5F84C053AF0D3FE002840F05C855B
:1028F0009AF8A012C1F3800149483BF051FC00282E
:1029000040F03085DFF82881DFF8289108F1100BBE
:1029100038F8020F3BF010FA014648463BF040FC05
:10292000C34509F10C09F3D13E4833F00FFA3E4894
:1029300033F00CFA032106A835F076F89DF818302C
:10294000002B00F0C9849DED077A2B8A07EE903AA0
:10295000F8EEE77A0D21F4EEC77AF1EE10FACCBF6B
:102960000123002306A88AF8403235F05DF89DF86F
:102970001830002B00F0AD84079AB4F83C3EDFF825
:10298000B8C003F1010E0CEB83031FFA8EFE1A6030
:10299000B4F83E2E964500F0C684D4F8403EA4F824
:1029A0003CEE01339342C4F8403EA8BF1346012BCE
:1029B000994694F8103CD4BF0121002161F34513DE
:1029C00084F8103C134640F31987F0460EF1FF30AF
:1029D000BEF1000F40F0D68130E000BF281A002081
:1029E0000000001088550010380000100010001082
:1029F00038520010003000109A991940CDCCCC3DCF
:102A0000D8200010502E0010682E0010842E0010C8
:102A100008A500205CA40020E8100010F0100010B1
:102A2000F81000108805001060050010941E0120A9
:102A300006620010041100103C0C00104FF0FF3231
:102A4000D218FDD40CEB82024FF0000892ED007A10
:102A5000C6466FF001014FF0FF300A46D218FDD490
:102A60000CEB8202D2ED007AB9F1020F37EE677AF1
:102A70002CD0AEEB090EA8F1030800290A4680F21B
:102A80009481D218FDD40CEB8202B8F1000FD2ED84
:102A9000007A424680F29881D218FDD40CEB820273
:102AA000D2ED006A77EEE67A08F1FF38F4EEC77AE5
:102AB000F1EE10FAC8BF084601F1FF31C8BFB0EE11
:102AC000677A8E45D9D1411E40F16585C918FDD47C
:102AD0000CEB8101D1ED007A08B1C018FDD40CEBEC
:102AE0008002D2ED006ABC4B36EEE77A93ED006AC5
:102AF000BA4BB4EEC67A83ED027AE3EC017AF1EEDA
:102B000010FAD5EDF87AC3ED006A94F8103CCCBF0A
:102B10000122002262F30003F1EE677A84F8103C90
:102B2000B4EEE77AC4BF012384F8383C94F8103C33
:102B3000F1EE10FA4CBF0122002262F3410303219F
:102B400006A884F8103C34F06FFF9DF81830002B75
:102B500000F0F7829DED078ADFF8B092DFF8B082CF
:102B60004FF0000AB8F80C003AF092FD03469FEDD2
:102B70009C0A414606A8002B40D028EE000A30F0FF
:102B800063FF069A9FED976ADDED076A9FED965AFF
:102B90009FED964A05EB0A131344B7EE000A93F82B
:102BA000EA2493F8EB3407EE902A07EE103AF8EE99
:102BB000E77A70EE665AB8EEC77A67EE867A27EE45
:102BC000067A67EEA57AF0EE044AE7EE267AF5EE8D
:102BD000C07AF1EE10FA0CD9F4EEE47AF1EE10FAC4
:102BE000BBBFB0EE457AA7EE847A9FED810A87EEEF
:102BF000050AD9F8003048461B6898470AF10103D6
:102C0000022B09F1780908F110084FF0010AA9D147
:102C1000784DDFF8009205F1600A09F103086B684E
:102C2000002B00F0FD80597A04A84CF0D1FE6B68AF
:102C30009DF81070197A9DED058A06A84CF0C8FE23
:102C4000DDED078A9DF81830002F40F02382002B1D
:102C500000F06582BB4669688B7808EE103AB8EEE2
:102C6000488A2B7A002B40F043832869002800F023
:102C7000B085CA798B799A4200F232832B78002B87
:102C800040F012828B7907EE903AF8EEE77AF4EE94
:102C9000C87AF1EE10FA40F1148201232B70012161
:102CA00000223BF00DFB2B78002B40F01282002716
:102CB00029E2514849F0BCFD002800F0EB8395F86B
:102CC000DE33012B00F0A685022B4C4B029304D17E
:102CD000D3F8E830002B00F0A485494800213BF0F0
:102CE000D7FD064684F82D0030B104F5A04393F9D2
:102CF000C032002B00F0C985DFF81CA1A08C8AF837
:102D0000C0623BF019F894F82E309AF8C422DFF82C
:102D10000C81434063F3000298F969308AF8C422B9
:102D2000012BAAF540567FF4EBAC96F82031032B2B
:102D300000F07E85B5F86433324800EE103AB8EE04
:102D4000400A3DF0BDFF00283FF4DAAC002308F153
:102D5000600019461A463BF03BFA2B48B5F864135D
:102D60003BF0D2FFCCE42448002386F8213150F018
:102D70000DFE214849F05CFD00283FF40BAD52F0F8
:102D8000E7FC07E58242014602DC891A8A42FCDD43
:102D90000CEB8101BEF1010F91ED007AAEF1020161
:102DA00040F0E6834FF0010857E69942FFF66BAE1C
:102DB000D21A9A42FCDA0CEB8202B8F1000FD2ED83
:102DC000007A4246FFF668AE9845FFF667AED21A23
:102DD0009A42FCDA62E600BF845B0010FC0B001034
:102DE0000AD7A33C0AD7233C33335340C2F5A8BFCC
:102DF00000000000341E0120D82000100010001038
:102E00000800001040000010D4AF080858520020FD
:102E10006C5A00107D02001000500010DCA300204E
:102E20009B461F4609F8017F183528F802BF554513
:102E3000A8F808307FF4F3AECB4830F09FF8CA4BC7
:102E40001D4603F148004CF055FD05F1580050F0C7
:102E5000EFFA05F1700049F0DFFF05F190004BF04B
:102E600061FF05F5027038F09BFD05F5D16028F093
:102E7000BDFE05F5D26052F01DFC05F5ED605AF07F
:102E8000E5FB05F5EF605EF067FB05F5F66059F0D0
:102E9000EBF905F5FC605AF069FC05F2EC705AF0AC
:102EA00065FC029A4FF08243C2F8E03094F8CC34CB
:102EB0002F46002B40F0B780AC4D9FEDAD5ADFEDB3
:102EC000AD5A9FEDAD7ADFEDAD8A012384F8CC34A5
:102ED000B5F9FE3B07EE903A95F9FD3B06EE103A48
:102EE000F8EEE77AB8EEC66A95F9FC3B67EE867AAB
:102EF00006EE103A67EE857AB8EEC66A95F9F53BAC
:102F000077EEA77A08EE103AE6EE257A05F6F83560
:102F1000B8EEC88AF1EE0E6A68EE266A38EE077AD5
:102F2000FCEEE77A17EE903AC6EE877AA4F8C8333B
:102F300017EE900AFDF7DEFB9FED830B41EC110BC2
:102F400003F07EFD15F8023C07EE903AF8EE677A42
:102F50005BEC10ABC7EEA87A17EE900AFDF7CAFB40
:102F60007BA3D3E900238046894650465946FDF7A6
:102F700019FC79A3D3E90023FDF714FC02460B46A4
:102F800040464946FDF70EFCFDF7E4FE95ED006A6C
:102F9000DFED7B6ADFED7B5AC4F8D80386EE287A32
:102FA000A7F56778A7F5667507EE900A27EE267AEB
:102FB00038EE258A77EE677A9FED736A84EDF47AAE
:102FC00088EE066A86EEA78A16EE100A84EDF38A6A
:102FD000FDF790FB9FED621B41EC100B03F030FD01
:102FE00051EC100BFDF7B6FE07EE900A4FF0FF33E1
:102FF000DFED666A9FED667AC4F8203428EE278AF2
:103000000023A8EE267AC4F8BC33C4F8C033614B61
:10301000C8F800302B600022002347E9D823C4F809
:10302000D40384EDF77A032106A834F0FDFC9DF863
:103030001830002B00F04A819DED070AF7EE000AD8
:103040003DF000FCFDEEC07A0D2106A817EE907A47
:1030500034F0EAFC9DF81830002B40F0A980002FD6
:1030600000F3E9814C4B1B7D012486F8D240002BF4
:1030700040F0C581494C4A48D4ED007AB8EE670A61
:103080003DF028FE002840F0A38109B0BDEC048B80
:10309000BDE8F08FFDEEC87A17EE902A0FFA82FB9A
:1030A000CBB9DFED408AD6E5CB7907EE903AF8EE62
:1030B000E77AF4EEC87AF1EE10FA7FF7F0AD00236C
:1030C0002B70002100223BF0FBF82B78002B3FF403
:1030D000EEADC82717E068690368B0EE480A1B68C0
:1030E000F0EE680A98476968B0EE408A00297FF4DC
:1030F000B8AD38EE080A6BF027FEFCEEC07ACDEDD5
:10310000037A9DF80C70B2EE040A28EE800A6BF088
:103110001BFEBDEEC00A10EE103A1BB282E6DFEDD8
:10312000218A9B4697E5204941F6052009B0BDEC70
:10313000048BBDE8F04F4DF0EDBF9FED1A7AFFF71D
:103140004FBB9FED188A07E50000000000002440F7
:1031500000000020636E1840000000C01C3D9E3F30
:10316000000000000000E03FC007001088A500102C
:103170000AD7233C3333CB41CD4C6D430000C842CA
:103180000AD7E94133938843000095432B87963F44
:10319000583934BE000080BF1C1E012024100120BD
:1031A000381600200000000098AF08080024744979
:1031B000002F9DED078A7FF755AF3BF0EBFBFDF746
:1031C000E9FEF3EE0E7A06EE900A1FED087AB4EEF1
:1031D000E78AF1EE10FAC6EE878A00F15A83CB4DEA
:1031E000D5ED007A77EEC87AB2EE047AF4EEC77ABB
:1031F000F1EE10FA00F30B83D4F82094B9F1000F2C
:1032000040F3D981A84678ED017AF5EEC07AF1EE67
:1032100010FA40F3D081D4F868349F423FF422AFD3
:1032200078EEE77A9FEDBA7AC4F86874F4EEC77A5C
:10323000F1EE10FA3FF516AFA7EB0903002BB8BF6C
:103240005B421D2B7FF70EAF05F17C0A242251460D
:1032500005F1800070F06AFFD4F86434DFEDAD6AE8
:10326000013307EE907A0A2BC4F86434F8EEE77A5B
:10327000A8BF0A2313F0FF03CAED007A09D003F2B6
:10328000291204EB820272ED017A524576EEA76AAA
:10329000F9D107EE903AB8EE677AC6EE877AFDEE7E
:1032A000E77A17EE907A07F13C039945C4EDF87A76
:1032B00000F3C780984DA7EB0903002B95F8F42B7A
:1032C000B8BF5B42934280F27981CBE69FED910AD1
:1032D000B4E60022FFF751BB9FED8E7AFFF735BBB6
:1032E0008E4941F2EA704DF015FF69682869C5E41E
:1032F000DFED8B6A9FED870AE868C8EE267A0368DF
:103300001B68B7EE007AF4EEC77AF1EE10FA58BFF8
:10331000F0EE477AF4EEC07AF1EE10FA58BFB0EE54
:10332000670A9847E5E6D4F8402E01327245C4F8A2
:10333000402EA8BF7246012A914694F8102CD4BFA3
:103340000121002161F3451284F8102C4FF0000296
:103350007346A4F83C2E3FF771AB10464FF0FF3197
:10336000FFF7B4BB6F483BF08BFAFFF7CBBA9FED8A
:103370006E0A6E48DFF8EC913DF062FC00283FF4E5
:103380004AAAD9F80020002A3FF445AAA8EB020374
:10339000C82B7FF640AA00936549434642F2C520F8
:1033A0004DF0B8FEFFF737BADFF8BC8198F825106A
:1033B00040463BF06DFA014688F82500FFF79CBABD
:1033C00095F82F1340463AF0E9FC0146FFF780BA22
:1033D000584B59489B684AF6AA221A603BF050FAAB
:1033E000564B1A6840F6B7318A423FF64EAE216816
:1033F0000A441A6009B0BDEC048BBDE8F08F504D53
:103400002E6A337D002B48D100232B722B7331E6BB
:1034100096F82031A3F10303B3FA83F35B0919464D
:10342000FFF7C9B904F138003BF02AFA002384F809
:103430004830FFF74CB9DFF834813BF0ABFA08F1C4
:10344000040500233F4AC4F8BC33C4F8C0333E4BE4
:10345000C8F800302B6000204FF0FF330021C2E994
:103460000001C4F82034FDE538483DF033FC002865
:103470003FF4E7A996F8A43E002B00F0F581002365
:10348000334886F8A43E33743BF03EFC60F008FA03
:10349000FFF70ABA2F4B02931FE4A723224604A981
:1034A00030468DF8103060F0BFF9042206A930468E
:1034B00060F0D4F99DF818309B07A5D59DF81A3017
:1034C0009DF81B109DF819209FED237ADFED237ADC
:1034D0001B0243EA0143134308EE103AB8EEC88AD0
:1034E00028EE078AB4EEE78AF1EE10FA8CDCDFED05
:1034F0001C7AB4EEE78AF1EE10FA85D43BF03AF884
:103500002C72C5E9060185ED038AB3E52804001095
:10351000CDCC4C3D0000000088A5001094B00808F8
:103520000000C842400800108096984A30210010E0
:10353000F8AF08082810012038160020981E012036
:103540003052002060040010000080BF385200108C
:1035500060B0080800100010CDCCCC370000F0425D
:1035600000004842941E012048530020240400100B
:103570008A42D8BF8A4600F36781AAEB020A524505
:10358000FBDD0CEB8A0ADAED007AB9F1020F37EEB7
:10359000677A7FF46EAA9942C0F28381C91A994270
:1035A000FCDA0CEB8101D1ED007A00E0C01A984200
:1035B000FCDAFFF794BABE4DC4F8E07307EE907AD8
:1035C000DFEDBC6ABC4BDFEDBD4A9FEDBD4ADFEDD0
:1035D000BD5AC4EDF98AF8EEE77AB9F1000F87EE2B
:1035E000A67AD3ED006A84EDFB7A05F6044393EDE9
:1035F000006A84EDFA8A05F6084366EE866A93ED62
:10360000006AB4F8C83366EE866A06EE103AB8EE81
:10361000C66A87EE265A86EE247A84EDFC5A27EE97
:10362000057A27EE047A67EE255A84EDFD7AC4ED1B
:10363000FE5A40F3C080A44F9FEDA48AD7ED005AF4
:10364000F4EEC85AF1EE10FA40F3B58097ED043A63
:10365000B5F90C2C94EDF72ADFED9D2A78EEE58A7A
:1036600077EE435AF6EE003A85EEA85A05F6144373
:1036700005F5416507F1640807F14C0066EE235A31
:1036800094EDF16A85EEA44A67EE075A37EE037AA5
:1036900026EE236A27EE237AB4EEC85A27EE287A5C
:1036A00026EE256A84EDFF7A93ED007A35F9023C27
:1036B000DFED884AF1EE10FA134454BFF0EE455A9C
:1036C000F0EE485A26EE077A95ED005A47ED095A72
:1036D00006EE103A27EE057AB8EEC66A27EE027AB1
:1036E00026EE256A07ED077A07ED086A36EE076AC7
:1036F00007F1480524EE067A1822C7EE268A2946E5
:1037000007ED057A28EEA47A07ED066A67EE877A58
:1037100007ED037A87EEA29A47ED048A07ED029A35
:1037200070F004FD182207F16800414670F0FEFCBD
:10373000D4F86004C8ED008A062885ED009A00F3ED
:10374000AD800130C4F86004C0B20346002800F028
:10375000AA8003F591739FED5D7A9A0004EB8303D1
:1037600073ED017A984537EE277AF9D107EE900A82
:10377000F8EE677AA2F11C03C7EE276A23449FED97
:10378000537AC4EDEF6A73ED016AAB4237EE267AE5
:10379000F9D1C7EE276A504DC4EDF06AA5F1400497
:1037A0000FCC0FC50FCC0FC50FCC0FC594E80F0081
:1037B00085E80F0056E4484CA4F140050FCD0FC436
:1037C0000FCD0FC40FCD0FC495E80F0084E80F0094
:1037D00048E4424940F25E204DF09CFC002792E410
:1037E0003F4C4048404D3BF04BF804F5805302936A
:1037F00004F5A04A04F50056FEF782BF4FF0FF31F2
:10380000C9184FF000003FF561A9FFF761B9A5F1B4
:10381000040816E6354B0293D3F8F030002B7FF402
:103820005CAA324B03F5804A03F58056FEF768BF69
:10383000002308F160001A4619463AF0C9FC2C48EA
:103840003BF062FAFEF75CBF0CEB8102D2ED007A2E
:10385000B9F1020F37EE677A4FEA81027FF409A9C6
:103860006244D2ED007AA2E6224B1B78002B7FF453
:103870001BA860F015F800283FF416A81E4941F275
:10388000D7704CF0CDFEFFF70FB853F0C9FBFFF730
:1038900033BADFF8348008F10405D2E5072318466F
:1038A00057E78A00DCE7C8EE086AC4EDEF6A72E702
:1038B00088A500100000704288B1001000007A4412
:1038C000F90F4940F7290F402404001000000000C0
:1038D0000020A445DDD03C3F2004001084B008083F
:1038E0000000001038000010885500100010001073
:1038F000A4AF0808E267012030B00808000000000B
:1039000010B5554A55480023402169F0E9FA53485B
:10391000514A044600234121283069F0E1FA20464B
:103920004D4A00234221503069F0DAFA20464A4AD3
:1039300000234321783069F0D3FA2046464A002319
:103940004421A03069F0CCFA2046434A00234521A7
:10395000C83069F0C5FA20463F4A00234621F030BE
:1039600069F0BEFA3C4A0023472104F58C7069F0E7
:10397000B7FA3B4B3B49196048201871492083F83E
:1039800024004A2083F844004B209FED2F6B9FEDCD
:10399000307B83F864004C2083F884004D200022A3
:1039A00083F8A4004FF04E0C4F2083ED046B83EDA1
:1039B0000C6B83ED146B83ED1C6B83ED246B83ED3B
:1039C000067B83ED0E7B83ED167B83ED1E7B83ED03
:1039D000267B1A721A73196283F8282083F82C2028
:1039E000196483F8482083F84C20196683F868200E
:1039F00083F86C20C3F8801083F8882083F88C202B
:103A0000C3F8A01083F8A82083F8C4C083F8E400AA
:103A100083ED2C6B83ED2E7B83ED346B83ED3C6B60
:103A200083ED367B83ED3E7B83F8AC20C3F8C0107A
:103A3000C3F8E01083F8C82083F8CC2083F8E8208E
:103A400083F8EC2010BD00BF002D31010000000004
:103A50000000000000000000400D0300D8260020F8
:103A6000B81F0020F8D207080D480E4AC3680E4957
:103A70009FED097B10B4002443611C700830046280
:103A800080F82440094B5DF8044B80ED0A7B3BF045
:103A900007B900BFAFF30080000000000000000085
:103AA000382D002004C60808F42B0808B431080893
:103AB0009FED177B002310B480ED047BC0E9093330
:103AC0009FED157BC0E90D3302710372144A037335
:103AD000A0F82D3080F82F30C387036B80F83C109E
:103AE00002214FF0010C02F128040B400363046231
:103AF00080ED067B80ED107B5DF8044B80F83DC0C7
:103B000080F82CC0026080F830107047AFF300805E
:103B1000C0D4010000000000000000000000000010
:103B200068E40708000000009FED0D7B00B500224F
:103B30004FF0000EC0F8A4100B49C0F80CE0C0F81C
:103B400020E0C0E90422C0E9062280ED0E7B80ED72
:103B5000347B5DF804EB8260016042623FF00EBF8F
:103B600000000000000000F0D8E40708000000009A
:103B700010B59FED136BDFED147A144CC0ED147A81
:103B800000234FF0010C836280ED126BC362C0E929
:103B90000833C0E90A33C0E90C33C0E90E33C0E989
:103BA0001033C0E9033300F10C0E0360437143612D
:103BB000C36180F854C0836180F804C0846010BD84
:103BC00000000000000000000000C07F1CD50808B5
:103BD00070B5214ED6F81033D6F8A044013382B028
:103BE0000546C6F81033A6F81403ACB1002306F559
:103BF0004A7001E0A3420FD01A010133815AA94251
:103C0000F8D1164C144420463AF03AFE144802B05B
:103C1000BDE870403AF034BE04F05EFBD6F8A03444
:103C2000104A0190172B0FD803F232519FED087BF9
:103C300002EB011484ED007B258101330198C6F865
:103C4000A03405F03FF9DEE7019805F03BF9DDE728
:103C500000000000000000F0005000102053001091
:103C600018530010000000102DE9F84FD04BD14D33
:103C7000D14AD249D248D34E00242DED088BFF27DC
:103C80009960D1491C61C3E90024C3F81340DC608A
:103C90005F7568F0F9FB4FF48072214605F22A4007
:103CA000C5E9014470F063F8C848C94BC949C5F873
:103CB0002C35C94B2B6000F1280CC84BC5F83435A6
:103CC000C0E902CCC64BC0F800C001F1280CC1E924
:103CD00002CC8122C1F800C04FF0640CC6E908CCC8
:103CE000C3F8C02600F1180CBE4AC3F8CC26C0E9C0
:103CF00006CCBD4A85F8304500F1200CBB4D1A605A
:103D0000C0E908CC83F8C446DFF894C3B84B2B60F5
:103D1000C6F800C0B74B6B604FF47A7CEB60C5F817
:103D200008C000F14005B44A04610475456001F122
:103D30004000486001F118001C70F46113460C61EA
:103D40000C75C1E9060001F12000AC4E43F8246B6C
:103D5000C1E90800C2E902441471A43243F8104CCE
:103D600003F80C4C23F80A4C03F8084C03F8077CC2
:103D700003F8064C10339342F0D1A14AA14B02F153
:103D800034011A605961A04A1C711421C3F89410BF
:103D900044F62061C3E9261200204FF07041C3E9C8
:103DA0002A01C3E90244C3E90644C3E92344974B0B
:103DB000974A984983F8A4438620C3F8A003C3F820
:103DC000AC231960C3F8B043934BC3F8AC23934AB8
:103DD00083F8A44382F814440124C3F8A003C3F871
:103DE000B04319608723C2F810349FED6B8B8C4B66
:103DF0008C488D49C2F81C040524C2F82044116087
:103E00004FF0000803F5C072C3F8088083ED068BFD
:103E1000C3F80C8083ED088B83ED0A8BC3F8008018
:103E200083ED0C8BC3F8108083ED0E8B83ED108B2C
:103E300083ED128B83ED148B83ED168B60339342ED
:103E4000E2D17A487A4E9FED7B9A9FED7BBA292189
:103E500069F05AF87948262169F056F878485A21CD
:103E600069F052F877485B2169F04EF8764B774A53
:103E70001A607748252224211A7169F045F8FFF766
:103E80003FFD744A7449754B1162C1E90088C1E96C
:103E9000028881F814800027714919609FED40ABBA
:103EA000C3E904676F49704E116000272321C2E9FE
:103EB000046719713CA7D7E9006703F128012224A0
:103EC00083F8088083F80C8083F82C8082F80880BF
:103ED00082F80C801962147183ED068B82ED068BDB
:103EE00083ED0CAB6148624A83ED099A21210023DE
:103EF00068F0F6FF5F485E4A5021002368F0F0FF4B
:103F0000202132463B465C4868F0EAFF5B4B5C4848
:103F10005C4A1A60F7EE009A5B4A0260F0EE690AAA
:103F2000B0EE4B0AC0ED019A80ED059A80ED049A3F
:103F300080ED039A80ED029A80ED079A80ED069A53
:103F40004FF00C0A0430C3E9046783F8088083F853
:103F50000C8083F804A083ED068B5FF0EFFF4B4BE2
:103F60004B48C3ED009A83ED049A83ED039A83EDE9
:103F7000029A83ED019A83ED059A83ED069A454BEB
:103F8000454AC3ED019A2146444C1C6083ED029AD8
:103F900083ED039A86E000BF0000000000000000EF
:103FA00000000000000000F0000E270700000000E5
:103FB000E81F0120A420012084E20708049D0808CE
:103FC000785300200C610120C8D7080834D30010B2
:103FD000D0D7080874D3001058D50708B030002097
:103FE000F0670020D4D7080840D50708FC600120FE
:103FF000E0D70808F06101203C10012090D50708A7
:10400000B8D50708F05300208F1E170098C5001080
:10401000503608081CD60708C0C1001070C900102F
:10402000782B00204836080800D60708182A0020F8
:1040300080841E00000000000000C842702800209C
:1040400020290020C8280020ACAF002030D6070867
:1040500018280020305200201C1E0120C09600208D
:104060004CD6070870D6070800093D00C024002080
:10407000801A060098240020B026002090260020F8
:1040800094470120F8D2070890D60708B4470120CA
:10409000C829002064460120400D030064D30708AE
:1040A0007CD5070883ED049AC3ED059A002368F0D8
:1040B00017FFD14BD1481C60D14AC3ED019A83ED63
:1040C000029A83ED039A83ED049AC3ED059A2821A1
:1040D000002368F005FFCB48C94ACB4CCB4FCC4EF0
:1040E0003621002368F0FCFECA48C54A3821002367
:1040F00068F0F6FEC84AC94BC948CA4914601C603A
:10410000C94C04600C602724147135241C7142F2E0
:104110000474848028248471C44C82F8088043F29B
:104120003350888000254FF03400C2E90445C3E9CC
:104130000445C2E90A88C3E90A8882F80C80C2F8FB
:10414000208082F8248082F8348083F8088083F805
:104150000C80C3F8208083F8248083F83480887131
:1041600082ED068B83ED068BB14882ED0C9A83EDD0
:104170000C9AA34AAF4DB04C0521002368F0B0FE65
:10418000AE489F4A3221002368F0AAFEAC4AAD49EE
:104190001160AD49AD48B9620131B1620131A96226
:1041A000A0F180019FED927BDFF810C35060916019
:1041B0002A223A712B220CF1240E32712C2285ED29
:1041C000047BA34BC5F800C0C5F820E085F8088043
:1041D00085F80C80C5F824802A7185ED068B2D2288
:1041E0009C4DC7F800C087ED047B86ED047BC6F8C4
:1041F00000C0C7F820E0C6F820E087F8088087F8FC
:104200000C80C7F8248086F8088086F80C80C6F8F1
:10421000248084F80880227187ED068B86ED068B5A
:1042200084F80C80A5624FF02E051D718A4D9D62A9
:104230008A4D8B4F8B48C4F800C04FF02F062E716B
:10424000894EAE62894EC4F820E0B7604FF01A0B79
:10425000874F86F804B03760864E83F808804FF0A9
:104260001B095A4637600021834F83F80C8084ED88
:10427000047B83ED047B85ED047BC3F82480C3F8C5
:1042800000C0C3F820E0C5F800C0C5F820E083ED09
:10429000068BB76086F80490C4F8248085F80880FF
:1042A00085F80C80C5F8248084ED068B85ED068B9F
:1042B000FFF7FEFB4A467148714EDFF80492012178
:1042C000FFF7F6FB5AF088FB6E486F4A026028320F
:1042D0006E496F4B02626F4ADFF8E8C1C0F82CA04C
:1042E0004FF4FD6E03274FF08144C0F828E080F8BA
:1042F000088080F80C80C0F824800B601360077180
:104300002833046380ED048B012480ED068B0520A7
:10431000C1F828E00F2581F8088081F80C80C1F8E9
:1043200024800B6213620C715B4BC86281ED048BBD
:1043300081ED068BC1ED0C9A0221C2F828E09FEDB9
:10434000570A82F8088082F80C80C2F82480D5626F
:104350001171304682ED048B82ED068B4FF00D0B10
:10436000C2ED0C9A0E210CF12802C3F828E0C3F824
:1043700000C01A62C3F8309083F8088083F80C807C
:10438000C3F82480DD6283ED048B83ED068B83F814
:1043900004B068F0DBFD424BDFF82CA1DFF82C9174
:1043A0001846294668F0D2FD1121504668F0CEFD2E
:1043B00012213C4868F0CAFD3B4A394B166096F81A
:1043C0002460384856735360384E93F82430937302
:1043D0009AF824307373706090F824303448B373C3
:1043E000344B817134499D7172E000BFAFF300809E
:1043F000804F1200000000008C460120F0290020B0
:10440000400D030078290020BCD6070890960020B4
:1044100060960020A0290020F8350020C03500203B
:10442000844601207C460120A0D6070800350C00F8
:10443000209700203096002000960020F89600205B
:1044400020460120DCD6070805030A00C48D0010B1
:10445000D095002008030A0009030A00A095002057
:1044600005CD0508305500200A030A0080610120AF
:1044700024D70708746101201DCD0508E8540020E9
:10448000609C002068950020B8D707083095002070
:104490007CD70708F8940020C0940020000048430F
:1044A000189C0020889B002094AF00206CAF002057
:1044B0005CAF002084AF002034AF0020ECD60708AA
:1044C0003333234040D70708D09B0020409B002077
:1044D000DC4D1D6005600D60DB4D82F81480956039
:1044E00082F80CB082ED049A1022327340F60D620D
:1044F0009A8083ED029A83ED039A41F2101386F8B5
:104500001480B5608380C6F800A041F2135386ED95
:10451000049A16268B80B0EE690A80ED029A80ED2F
:10452000039A8E71484681ED029A81ED039A152116
:1045300068F00CFD3146C54E304668F007FDC449B1
:1045400099F824304B7396F82430C24A8B73C24BCF
:10455000C24818601060C2489860906013208D6057
:10456000C1F800904E6081F81480087381ED049AC0
:10457000172182F80C801171BA4883F80C8014223C
:104580001E211A7168F0E2FC9FEDB70AB748B84ED9
:104590001F2168F0DBFC5AF045F9B649B648B74A26
:1045A000B74B0F73B74F0F60076017601F60B64FB0
:1045B0008F60876097609F60B44F3760B44FB7607B
:1045C00051270F715221017124210173532114735A
:1045D0001171542200251A7121221A7329464FF0B5
:1045E00080734FF4587206F15000C6F82D3086F8EB
:1045F0004840B58486F82C50756386ED06AB86ED91
:104600000EAB86ED10AB6FF0B2FB2946402206F5EB
:104610000A70A6F85850C6F86A50C6F86E50C6F828
:104620007250A6F8765086F87D50A6F88C50A6F801
:104630009E50C6F8B650A6F8BA5086F8BD50C6F8D7
:10464000BE50A6F84451C6F84651C6F84A51C6F8BD
:104650004E51C6F85251C6F85651C6F85A51C6F8CE
:104660005E51A6F88A51C6F88E51A6F8BC516FF07B
:104670007EFB40F2011329464FF48A7206F56F70F3
:10468000C6E9ED55A6F89252C6F82253A6F83C5357
:10469000A6F85C5386F85E53C6F87653A6F87A53AC
:1046A00086F8B253A6F8B0336FF061FB794BC6F8C9
:1046B000C43306F5A26383ED00AB03ED02AB764B8A
:1046C000C6F8D03406F5A46303ED02AB06F59C638F
:1046D00083ED00BA06F2E44383ED00BA06F59D636C
:1046E00083ED00BA06F2EC4383ED00BA06F59E6353
:1046F00083ED00BA06F2F44383ED00BA06F59F633A
:1047000083ED00BA06F2FC4383ED00BA294606F5B4
:104710009B63342206F22C5086F80055A6F82055EB
:10472000C6F8D45486F8DC5483ED009A6FF01FFB72
:104730005A4BC6F82835294640F6883206F5AC6053
:104740006FF015FB564BC6F88435564BC6F86035EE
:10475000554BC6F8AC352946544BC6F888354FF44E
:10476000D47206F5B6606FF002FB5149C6F8EC153D
:104770005049514BC6F8241606F5C2614F4A0A60EB
:10478000C6F8B03506F214614033C6F8B4354C4B68
:104790000B6006F20461C1ED009A06F5C96106F2EC
:1047A00024600A6006F24C62A6F8EA551360C6F867
:1047B0000C46C6F8444638F0ABFA06F5E06306F25C
:1047C000047003ED02AB68F00FF93E4BC6F85837A2
:1047D00006F5E763C3ED009A06F5E96383ED009AF9
:1047E00006F2447383ED009A06F5E86383ED009AC0
:1047F00006F23C7383ED009A06F5EA6358222946D7
:1048000083ED009A06F2647006F24C7383ED009A11
:104810006FF0ADFA2C4BC6F8D0373C33C6F8D4371E
:104820002A4BC6F860372A4BC6F8C03706F5FB603E
:1048300006F5F4634FF000084FF00009C3E9008962
:1048400048E000BFF4D7070810D80708F89A0020FE
:1048500044AF0020A4460120B446012048D30708F5
:104860004DBB05083025002000007A44E8240020D4
:1048700000000010646101205461012044610120A6
:10488000346101202CD80708000080BFB8DF07087A
:10489000F0D70808CDCC9C3F48D80708A0DF070810
:1048A000D855001054D8070814560010B8D8070877
:1048B0001CD9070830D9070844D90708002474C94F
:1048C0000024744988DD0708D4D90708ACD9070843
:1048D00070DF070886F8BA5768F086F8DF4BA3F553
:1048E0004B513AF0FBF8DE4BC6F870381833C6F877
:1048F0007438DC4BC6F80838DB4BC6F81838DB4B8D
:10490000C6F83038DA4BC6F85038DA4BC6F85838A3
:1049100006F5016383ED00AB06F5026383ED00ABA2
:1049200006F5046383ED00AB06F5056303ED02AB0A
:1049300006F5066383ED00AB06F5076303ED02ABF6
:1049400006F68C0383ED009A06F69C0383ED009A2D
:10495000294606F6A803402206F6AC00C6F8905891
:10496000C6F8A458C6F89458C6F8985883ED009A2B
:104970006FF0FDF906F50F6383ED009AC6F8EC5869
:1049800006F6F40306F5106500204FF0004183EDB4
:10499000009AC5E9000106F6F8034FF400021A6018
:1049A00006F6B81406F60813C3E902011A601033BC
:1049B000A342F9D1B04D1A602B4663E84801AF4AD3
:1049C0001A60AF4BC6F888384FF000084FF07049B6
:1049D0004422AC4BC6F8C839002105F12400C5E9D2
:1049E00004896FF0C4F9A84BC6F8E03900246FF0D1
:1049F00000430127C6F8FC3905F188004FF07E53CB
:104A0000214686F8017A86F8037A86F8057A86F8D0
:104A1000077A86F8097A86F80B7A6B65C5E90A8900
:104A2000C5E90C89C5E91A89C5E91C89C5E91E894A
:104A3000C5E9208986F8004A86F8024A86F8044AC1
:104A400086F8064A86F8084A86F80A4A67F0EAFFB6
:104A50008E4BC6F8483A39463C3305F1D800C6F8C3
:104A60004C3A67F0DFFF8A4BC6F8983A05F5947028
:104A70003C330221C6F89C3A67F0D4FF854BC6F858
:104A8000E83A05F5BC703C330321C6F8EC3A67F010
:104A9000C9FF814BC6F8383B6C223C33214605F5F3
:104AA000E670C6F83C3B6FF062F97C4BC6F8883B79
:104AB00005F5F6703C330027C6F8A83B67F094FF75
:104AC000774BC6F8F83B4FF40072214605F51F708E
:104AD000C5E99C89C6F8104C86F8384CC6F8404E9B
:104AE000A6F83C4EC6F8444EC6F8284CC5F83C72B1
:104AF000C5F84072C5F84472C5F84872C5F84C72E2
:104B0000C5F85472C5F85872C5F85C72C5F8607281
:104B1000C5F864726FF02BF9624BC6F8483E2C2240
:104B20000423214605F29440A6F83E3E6FF01FF99B
:104B30005D4BC6F8503E942205F59863214605F278
:104B4000CC40C3E900896FF012F9584B5849C6F8B8
:104B5000883E802205F2DC406FF033F9554BC6F8F1
:104B6000383F3033C6F83C3F534BC6F8203F534BD9
:104B7000C6F8283F524BC6F8703F524BC6F8A03FCC
:104B8000514BC6F8AC3F05F5AE63C3E90089392344
:104B900086F8403F05F2845305F5BF601F604FF46F
:104BA000927205F5BC63214643E9028986F8414FBC
:104BB000C6F8484F6FF0DBF8444BC6F8B83FA5F590
:104BC0001C663346A5F50A65C3F8BC4FC3F8C04F51
:104BD000C3F8C44F1A461833AB42C2F8C84FC2F8E4
:104BE000CC4FF1D13A4D3B4BC5F8DC303A4BC5F8D0
:104BF000E4303A4BC5F8E8300133C5F8F030A5F29F
:104C0000CC73A5F8EC40A5F8F440A5F8FC40C5F835
:104C1000F83005F5807405F5B073002727702781FB
:104C200064600C349C42F9D10023A3606362E362A8
:104C30002B4BA36404F1600001234FF0000A4FF0F6
:104C4000704B382200216765C4E90477C4E9007716
:104C50002763E7646763E763278443E0C48D00103C
:104C600088DE070848DF07081CDF0708F0DE0708B2
:104C7000C8DE070888DD0708C00900100000C84228
:104C800058DE070830DE07082CDA0708D8DD0708E9
:104C9000D8DD0708D8DD0708D8DD070854DA07088B
:104CA000ACDA0708B0DD070860DD0708D4DA0708CA
:104CB00020440708FCDA070838DD070810DD07087C
:104CC000E8DC0708A8DC070868DC070848DB0708F9
:104CD0000010001040DC070888DD0708BE520010F5
:104CE00028DC0708A763A4F85070A4F85270238545
:104CF000C4E906ABC4E910AB40E902AB4FF02008B1
:104D00006FF035F84FF00009114BA4F878704FF4AC
:104D1000A062002104F1CC00C4E92977C4E92D7711
:104D2000A4F88C70C4F89870C4F8AC70C4F8C8705B
:104D3000C4F8A030C4E930896FF019F8054A00279B
:104D4000134602F5A0613C4602F2EC4007E000BFCA
:104D500070DB07082C120010143399420AD09342DA
:104D6000FAD38342F8D81C601C46143399424FF0A2
:104D70000107F4D10FB1C5F82842002421464FF4B1
:104D8000D87205F5E760A6F8204385F830476EF045
:104D9000EEFFD54B85F8E848214603F8241B013186
:104DA0000C29FAD1D14BDFF890A303F5E462002778
:104DB00000244FF000084FF070495C61C3E91E8980
:104DC0009C619C609C62DC60DC621C61DC64DC6178
:104DD0001C651C621C665C629C639C64DC655C6692
:104DE00083F8684083F86940C3F86CA01F67C3F874
:104DF000807083F88C40C3E90C44C3E91044C3E9D4
:104E00001544C3E92144C3F89040C3E900449833F2
:104E10009A42D2D1B64E2822002106F118003474ED
:104E20006EF0A5FF0021902206F140006EF09FFF7A
:104E30009FEDAB7BAF4B9FEDB00AC6F8D830032295
:104E4000303306F1D80086ED3A7B86ED3C7BC6F820
:104E5000F830C6E94289C6E94A89C6E94644C6F837
:104E600000A1A6F8D04086F8D24086F8E04086F847
:104E7000E440C6F8FC70C6F81071C6F81471A6F8C4
:104E8000204186F8DC20FDF7DFFB4FF48C62002127
:104E900006F5C870C6E94C89C6E94E89C6E95B4487
:104EA000C6E96244C6F84C41C6F85441C6F85C41B4
:104EB000C6F84041C6F84841C6F85041C6F85841C6
:104EC000C6F86041C6F86471C6F86871C6F87471B6
:104ED000C6F87871C6F87C71C6F88041C6F884714E
:104EE0006EF045FF4FF48C62002106F2D470C6F8D4
:104EF000F0456EF03CFF06F634434FF001081F60AA
:104F000006F638434FF400721F6006F63C4300215A
:104F100006F644401F6086F8408C6EF028FF774B01
:104F2000C6F8683EC6F8843E754BC6F8543E754BCD
:104F3000C6F8503E744BC6F86C3E744BC6F8883EBB
:104F40004FF40003C6F8443E4FF0FF33C6F8A03ECE
:104F500006F6A8636E491F6006F6187306F62870F9
:104F60001F6006F61C73C6F8484E1F6006F5726394
:104F700086F84C4E1F6006F62473C6F8804E1F60FC
:104F800006F5805786F8A44EC6F8AC4EC6F8B04E6B
:104F900086F8B44EC6F89C8EFEF7C6FD00225D4B27
:104FA0003C721146C7E90044C7E90584FC61C7F8B3
:104FB000C84007F11000584CC6F8283FC7F8C44055
:104FC00040F0C2F807F5ED605449DFF87091DFF862
:104FD00070A1FEF7A9FD5249C7F8689706F5C250BF
:104FE000FEF7A2FD07F618104E49C7F84098FEF7E5
:104FF0009BFD07F51F604A49C7F81899FEF794FD15
:10500000C7F8F0990AF56B6900270022CAE92D4715
:10501000CAF80480AAF808708AF80A70CAF80C70F6
:10502000504611460AF5EB6A40F08EF8D145ECD1B6
:10503000C6E952773C4E3D4837704FF0000A4FF0BA
:10504000704BA6F51074C6E9057746E902ABC6E9D0
:1050500002AB3EF0B9FC364844F054FE06F128009D
:1050600030220021A4F860726EF081FE0023C4E9B2
:10507000A877C4E9AF77C4E9B177C4E9B777C4E9E1
:10508000BB77C4F89832C4F8A832C4F8AC32C4F87C
:10509000B032C4F8B832C4F8CC32C4F8D032C4F854
:1050A000D432C4F8D832C4F8E432C4F8E832C4F8D0
:1050B0000433204BC6F8B870C6E932ABC6E936AB4C
:1050C000C4F8FC32C4F8B47206F1E003C4F8F47218
:1050D00084F8007306F518764FF0000832E000BF40
:1050E000000000000000000039170010F018001048
:1050F0000020001080DB07080000000008DC070823
:1051000000D8080818DC070808D8080810D80808CC
:1051100018D80808C8DB0708E0DB07081CD808080F
:1051200028D8080834D8080840520010282F00104A
:10513000B82E0010000034440000C07FF0DB0708E8
:10514000C83A0010C3E900ABA3F8088010339E42B0
:10515000F8D104F5956300271F6004F2AC433022B8
:105160001F6004F59663002104F2B4401F60C4F888
:10517000A084C4F81083A4F814836EF0F8FD04F240
:10518000E4433022002104F59D601F606EF0EFFDC6
:1051900004F5A562C64E176004F22C5204F5A36311
:1051A000176004F5A6624FF0000A176004F234524B
:1051B0004FF0000B1F603346E3E804AB176004F5C3
:1051C000A76243E902AB1760012284F8582584F8EE
:1051D000508539F0CFF946E90801B649B64FC1F814
:1051E0000880C1E900114FF07E5EB449C5F8E4E1E2
:1051F000C6E90CABC4F89CE2B14EB248DFF87CE3E0
:10520000C1F800E09FEDA67BAF4ADFF874E3AF4939
:105210003A603260C0F800E0AD4AAE48086087ED01
:10522000047BAD4911609FEDA07BC2E90188252276
:105230003A712422C6E906AB86ED047B327186F80A
:10524000088086F80C80A54EA54B87F80880C7E932
:1052500006AB87F80C804FF0760EDFF82893A14F4D
:10526000C4F86085C4F87885C4F86485C4F8688596
:10527000C4F87C85C4F88085C4F88485DFF808A369
:10528000C6F8A0E3DFF804B3C6F80090C6F8AC7324
:1052900086F8A483944E95499548C3F8108003F18D
:1052A000280C03F1180403F1200503F16802C3E997
:1052B0000644C3E90855C6E900ABC3E900C2C3E927
:1052C00002CC8C4C83F8148067F0DEF804F5F0759E
:1052D0002046783467F0EEF8AC42F9D1864E874B21
:1052E000874DDFF8ACE2C6F81CE000244FF07E5793
:1052F00084483761C6E900347761B761C6E9024482
:10530000814E82492F61C5E900346F61AF61EE6162
:10531000C5E902447E4D7F4A0761C0E90034476118
:105320008761C561C0E902447B48DFF868C20F614C
:10533000C1E900344F61794B8F61C861C1E9024412
:105340007749C2F800C07748176157619761D1610A
:10535000C2E901447449D460744AC3F800C01F61B3
:105360005F619F61DA61C3E90144DC6067F08CF83A
:105370006F497048704DDFF82092704F67F084F8E5
:105380006F49704867F080F86F49704867F07CF8A3
:105390006F4A7049704B1160103191614FF47F4139
:1053A0009982198499856D4919606D49C2F8C413B1
:1053B0006C4959606C486D491C72DC601C745C82DD
:1053C0009C759C611C77DC8383F822405C6283F8C7
:1053D00028405C8583F82E404FF0000A8523C2E9FF
:1053E0000144D460948282F8BC43C2F810A0C2F891
:1053F000B83367F049F85E495E4867F045F805F54F
:10540000B06605F10C034FF0FF08C5E90E9305F1F6
:105410001803C5E9109305F14800C5E90C952C6007
:105420002C71EC802C7285F80980AC72EC602C74C5
:105430006C822C7585F81580AC75AC612C77EC838B
:1054400085F8204085F8218085F822406C6285F837
:1054500028406C8585F82C4085F82D8085F82E40F5
:1054600067F028F805F1C00067F024F805F124037F
:1054700085F83841C5F854A185F85841C5F85C4114
:10548000C5E94F74C5E95144C5E9534305F59E701C
:10549000394905F5B07538F061FF7FE0AFF3008062
:1054A00000093D000000000080841E000000000094
:1054B00040550010301F0120A0540020C46001207E
:1054C000C0540020E0600120F8D20708CC61012020
:1054D000101E0120D0DF07080CE0070848970020C5
:1054E000541F012040D808084C1601204CD8080849
:1054F00068920020E092002030480120E4E3070891
:1055000010480120F04701205CD80808D04701204E
:1055100064D80808AC6101206CD808088C610120AF
:1055200074D8080870480020481B08087CD8080870
:10553000501B0808E8480020B04C002090E0070805
:10554000581B080860490020601B0808D849002043
:10555000D0B700106CE00708A81D01205CE0070828
:1055600084D808080000A040C84A00208CD8080849
:1055700098D80808504A0020E0870808F8DF070894
:10558000E4DF070820E0070834E00708A89C0020B3
:1055900054D8080850E00708ACE00708AE427FF492
:1055A00030AFD24AD24BD34ED34DD448D449D46035
:1055B0004FF07E571761576197611F615F619F616F
:1055C000D04F37602F6007600F60CF4F17601F60AC
:1055D000CE4FD761C2E90144CD4ADA61C3E9014443
:1055E000DC60CC4B7360CC4B6B60CC4B4360CC4BE2
:1055F0004B60C0E90244C1E90244CA48CA49DFF825
:1056000094A3C6E90244C5E9024466F03DFFC749D8
:10561000C748C84D66F038FF49F08CFFC64BC74AF3
:10562000DA605A611470C64A9A60002641F28832E4
:105630000027C449C4489C62C3E90067C3E90C67FA
:1056400083F82C409C631A61FEF76EFABF48C0498C
:10565000C04AC14EC14FFEF78BFA5830FEF788FAA8
:105660005830FEF785FA01F1280CC1E902CCBC4B99
:10567000C1F800C002F1280CC2E902CCC2F800C097
:1056800001F1180CC1E906CC9C6001F1200CC3E9C2
:10569000003306F58053C1E908CC02F1180CC2E9C9
:1056A00006CCC3F8646902F1200C06F54056AD48FB
:1056B0000C61C2E908CCDFF8E0C2C6F8CCC2AA4E41
:1056C000C0F8AC63A94E066001F188060C754E6007
:1056D00002F188014FF47F431461147551604FF05B
:1056E000340E8422EB61C5E9054480F8A443C0F878
:1056F000A023C5F800A0A5F80CE04FF4427EA5F861
:1057000010E09B4ADFF894C212686A604FF4C56EDD
:10571000A5F82CE040F22A6EA5F830E005F1200E45
:10572000C5F850E0934AAA6040F2A45EA5F858E09C
:10573000914A2F6240F2246E4FF00109AA62A5F847
:105740005CE08E4A8E48AB6405F14C0E0C37AB66BC
:10575000C5F88830C5E91044C5E90E44C5E91844C8
:10576000C5E920446F63C5F84CA0C5F86CA06A6514
:105770006D6285F80E9085F82E9085F85A90C5E9EF
:105780001CECC5F8D40040F24630A5F878004FF480
:105790005270A5F87C0005F16C00C5F890004FF43C
:1057A000F870A5F898004FF4F970A5F89C0005F181
:1057B0008C00C5F8B0004FF4FB70A5F8B8004FF4AA
:1057C000FC70A5F8BC0005F1AC00C5F8D00040F2B3
:1057D0006230A5F8D8006B4F6B4E6C4AC5F8A83004
:1057E00040F24F30C5F8C830C5F8E830C5E9284464
:1057F000C5E93044C5E93844C5E94044C5F894706A
:10580000C5F8B460C5F88CA0C5F8ACA0C5F8CCA0AC
:10581000A5F8DC0085F87A9085F89A9085F8BA901A
:1058200085F8DA90C5F80831C5F8142105F1CC02E5
:10583000C5F8F02040F2B622A5F8F8204FF42E72F9
:10584000A5F8FC2005F1EC02C5F8102140F6F6623F
:10585000A5F818214E49C5F8F41040F6F862A5F8ED
:105860001C210021602205F59C70C5E94844C5F85B
:10587000ECA0C5F82831C5F80CA1C5F82C4185F875
:105880003041A5F83241A5F8343185F8364105F5A7
:10589000867B85F8FA9085F81A916EF068FA4FF4D5
:1058A0007F43A5F8B641A5F8B83185F8BA41C5F8E7
:1058B000BC4185F8C041A5F8C241A5F8C43185F8BE
:1058C000C641C5F8C84185F8CC41A5F8CE41A5F838
:1058D000D031C5F8984185F89C41A5F89E41A5F8BE
:1058E000A03185F8A241C5F8A44159E0A04B0020A1
:1058F000804B0020704B0020604B0020504B00205C
:10590000404B0020B8E00708C4E00708A4D8080806
:10591000A8D80808649D0808849D0808ACD8080821
:10592000B8D80808C04B0020C4D80808CCD808084C
:10593000384C0020DCA30020382D0020B4D3001008
:10594000D0D80808E087080888590020702A00206D
:10595000000F0120880F0120C4C30020BCE207080B
:1059600010F70020605A0020DCD80808D0E00708B3
:10597000BCAF0020E8D80808F4D8080800D9080807
:1059800040D9080828D9080834D908085CD908087B
:105990004CD90808E4E207082CDD002010D90808DB
:1059A00085F8A841A5F8AA41A5F8AC3185F8AE4123
:1059B000C5F8B04185F8B44185F8418185F84D813D
:1059C00085F8598185F8658185F8718185F87D8133
:1059D00085F8898185F8958185F8D241C5F8D8B1D7
:1059E0004FF4E77BA5F8E0B14FF4E87BA5F8E4B10C
:1059F00005F5EA7BC5F8F8B140F276224FF41C7B3E
:105A0000A5F80422A5F82422A5F800B2EA4AC5F8B0
:105A1000DC2105F5FA7BC5F818B2E84ADFF8E4E3C3
:105A2000C5F8FC2140F24A3BA5F820B2E44AE5491A
:105A3000C5F8F03105F5057BC5F8D4A1C5F81032DD
:105A4000C5F8F4A1C5F83032C5F814A2C5F8503233
:105A5000C5F834A2C5F81C2285F8E29185F80292B7
:105A600085F82292C5E97A44C5E98244C5E98A44A9
:105A7000C5E99244C5E98EBEC5F89C124FF4307159
:105A8000A5F8401240F2C221A5F8441205F50D71A7
:105A9000C5F8581240F2BA21A5F860124FF42F71E0
:105AA000A5F8641205F51571C5F878124021A5F81E
:105AB00080124221A5F8841205F51D71C5F89812CF
:105AC00040F25E310026A5F8A012DFF83CC3BE48C4
:105AD000C5F870324FF45871C5F854A2C5F8903229
